:020000040800F2
:100000000050002015380008790700087D07000817
:100010008107000885070008890700080000000024
:100020000000000000000000000000008D07000834
:1000300091070008000000009507000899070008D4
:100040005D3800085D3800085D3800085D3800083C
:100050005D3800085D3800085D3800085D3800082C
:100060005D3800085D3800085D380008A907000801
:10007000B5070008C1070008CD070008D907000828
:100080005D3800085D3800085D3800085D380008FC
:100090005D3800085D3800085D3800085D380008EC
:1000A0005D380008E50700085D3800085D38000885
:1000B000F10700085D3800085D3800085D38000869
:1000C0005D3800085D3800085D3800085D380008BC
:1000D0005D380008FD0700085D3800085D3800083D
:1000E0005D3800085D3800085D3800080000000039
:1000F0000000000000000000000000000000000000
:0C01000000000000000000005FF808F1A3
:10010C0010B5054C237833B9044B13B10448AFF345
:10011C0000800123237010BD70000020000000003F
:10012C00F44A00080C4B43B10C4810B50C49AFF322
:10013C0000800C48036823B910BD0A48036833B922
:10014C007047094B002BF7D0BDE810401847064B01
:10015C00002BF5D0184700BF00000000F44A00083F
:10016C0074000020700000200000000030B5002258
:10017C0001214FF46024114B114D85B018469A6043
:10018C005A615A601D60DC61D960196101F0EEF8AA
:10019C0078B90123002201A9084801930293039224
:1001AC0000F06AFF18B14F21064800F0DDFB05B0E6
:1001BC0030BD4521034800F0D7FBEAE78C00002056
:1001CC0000240140204B00081E4B02689A4200D0CC
:1001DC007047F0B50226032503F56C439A6987B086
:1001EC0042F400729A619B6902A903F400730193B3
:1001FC00044615480296019B03954FF4807702F054
:10020C00E3F94FF4806600234FF0800E20214FF469
:10021C0080520E4D0E486B6028602846AB60C5F8C6
:10022C000CE02F616E61A961EA6102F06DF818B9FA
:10023C0025626C6207B0F0BD7321064800F094FB98
:10024C00F6E700BF0024014000080140BC0000207C
:10025C0008000240204B000800221A4B10B55C69C4
:10026C0082B044F001045C615B69114603F0010348
:10027C0001930B20019B01F001FC0B2001F034FCDD
:10028C0000220C20114601F0F9FB0C2001F02CFC93
:10029C0000220D20114601F0F1FB0D2001F024FC91
:1002AC0000220E20114601F0E9FB0E2001F01CFC8F
:1002BC0000220F20114601F0E1FB0F2001F014FC8D
:1002CC0002B010BD001002402F4B2DE9F0414FF44D
:1002DC0000579A690125022642F010029A619A6928
:1002EC0088B002F010020092009A9A69DFF8A080A0
:1002FC0042F020029A619A69244C02F02002019289
:10030C00019A9969404641F004019961996900226A
:10031C0001F0040102910299996941F00801996177
:10032C009B69394603F008030393039B02F054FACC
:10033C002046002242F6044102F04EFA404604A93F
:10034C0004970595079602F03FF940F60442032303
:10035C0004A9204604920793059502F035F904A9E7
:10036C00204604970595079602F02EF900234FF4CA
:10037C00404204A9204604920593069302F024F906
:10038C0008B0BDE8F08100BF00100240000C014035
:10039C000010014002234FF4807200B585B069460D
:1003AC0004488DE80C00039302F00EF905B05DF8DB
:1003BC0004FB00BF00080140F0B5294A036883B074
:1003CC00934218D0B3F1804F01D003B0F0BD00229E
:1003DC0003F50433DC69114644F00104DC61DB698C
:1003EC001C2003F001030193019B01F047FB1C202F
:1003FC0001F07AFBE9E700234FF0800C4FF4807E8C
:10040C004FF48067202602F564429169154D41F442
:10041C00006191619269044602F400620092124AF2
:10042C00284600996B60AB60EB612A60C5F80CC084
:10043C00C5F810E06F61AE6101F066FF50B90022A3
:10044C006562114619206C6201F018FB192001F04D
:10045C004BFBBAE7AD21054800F086FAEFE700BF89
:10046C00002C0140000100201C000240304B000811
:10047C00002370B53B4C3C4A94B060602046E16070
:10048C002260A36023616361A36101F04FFA00282D
:10049C003CD14FF4805314A941F8483D314801F048
:1004AC0095F8002857D12F4801F05CFA00284CD160
:1004BC00002369462B480093019301F077FE002836
:1004CC003DD10023302608251A4606A92548079356
:1004DC0008930A930B930C930696099501F08CFAEA
:1004EC0038BB00234FF400520DA91E480D930E93F8
:1004FC000F93109311931393129201F02DFE58B990
:10050C002268194B9A4210D014B070BD4FF48C7104
:10051C00164800F029FABCE74FF4A171134800F01B
:10052C0023FA2268104B9A42EED1FFF733FF14B036
:10053C0070BD4FF49B710D4800F016FAD1E74FF4E3
:10054C0095710A4800F010FABBE740F223110748F6
:10055C0000F00AFAACE74FF48F71044800F004FA8B
:10056C00A1E700BF44010020002C0140304B0008E3
:10057C0038B500224FF4E1350C210A4B0A4C1846D1
:10058C0083E8300059619A60DA601A619A61DA6125
:10059C0001F0A2FB00B938BD4521BDE83840034845
:1005AC0000F0E2B94C02002000380140404B00083A
:1005BC00314B02689A4200D07047F0B504464FF4B4
:1005CC0000700226032503F558439A6987B042F45C
:1005DC0080429A619B69029003F4804300F1804051
:1005EC0002A9019300F58330019B03960595002524
:1005FC0001F0EAFF4FF48063204802A902930395AF
:10060C00049501F0E1FF80231D4E1E4A30467560B3
:10061C00B56035617561B561F5613260F36001F00B
:10062C0073FEF0B9002310218027174D174A66631B
:10063C002846746269602A60AB602B616B61AB61A8
:10064C00EB61EF6001F060FE80B90022256311467A
:10065C0025206C6201F012FA252001F045FA07B052
:10066C00F0BD70210A4800F07FF9DBE739460848F5
:10067C0000F07AF9E9E700BF0038014000080140BA
:10068C00C40100205800024008020020440002402F
:10069C00404B0008F8B54FF4827E00220227012659
:1006AC004FF4007508240A210C4B0D481F6183E898
:1006BC00014018465E619D61DC61D9629A60DA6026
:1006CC001A625A629A6202F0AFF900B9F8BD47217A
:1006DC00BDE8F840034800F047B900BFD002002045
:1006EC0000300140504B00081B4B02689A4200D06E
:1006FC007047F0B502260325A02703F560439A69DD
:10070C0087B042F480529A619B6902A903F480532A
:10071C00019304461148019B0396059502971026F8
:10072C0001F052FF002380220D4D0E49284685E82A
:10073C004200EA60AB602B616B61AB61EB6101F075
:10074C00E3FD18B9A5646C6207B0F0BD6D210648D5
:10075C0000F00AF9F6E700BF003001400008014044
:10076C008C02002030000240504B0008704700BF44
:10077C00FEE700BFFEE700BFFEE700BFFEE700BFDD
:10078C00704700BF704700BF704700BF08B500F04E
:10079C0035F9BDE8084001F0D9B900BF014801F0B6
:1007AC007DBE00BFBC000020014801F077BE00BF39
:1007BC0000010020014801F071BE00BF8C02002036
:1007CC00014801F06BBE00BF08020020014801F097
:1007DC0065BE00BFC4010020014800F0BFBF00BFD0
:1007EC0044010020014800F0B9BF00BF8401002083
:1007FC00014801F0E1BB00BF4C020020224B00B5C8
:10080C009A6983B042F001029A619B69032003F05C
:10081C0001030193019B01F01FF900226FF00B0003
:10082C00114601F02BF900226FF00A00114601F07D
:10083C0025F900226FF00900114601F01FF9002282
:10084C006FF00400114601F019F900226FF003005B
:10085C00114601F013F900226FF00100114601F06E
:10086C000DF900224FF0FF30114601F007F9074B4C
:10087C005A6822F0E0625A605A6842F000725A607C
:10088C0003B05DF804FB00BF001002400000014003
:10089C0030B44FF41F054FF000640E4B0E4A19682C
:1008AC000E4841F00101196059680A405A601A68F3
:1008BC0022F0847222F480321A601A6822F48022A8
:1008CC001A605A6822F4FE025A609D60846030BC43
:1008DC00704700BF001002400000FFF800ED00E080
:1008EC0030B501224FF48033002502244FF4E0117F
:1008FC0095B00AA80A920E920B9312930C95119430
:10090C00139100F089F800B1FEE703460F254FF470
:10091C008062214605A806940793099305950892D1
:10092C0000F09EFA00B1FEE74FF4004301A80194D9
:10093C00039301F065FC044600B1FEE700F036FBC2
:10094C00084BA3FB0030800901F0DAF8042001F019
:10095C00EFF8224621464FF0FF3001F08FF815B02A
:10096C0030BD00BFD34D6210FEE700BF101E1BDD73
:10097C0030B44FF060440D1801E08D4213D0D4F820
:10098C00803E0131DA07F8D5D4F8003EDB07F4D508
:10099C0023681BB900BF2368002BFBD011F8013C66
:1009AC008D422370EBD130BC704700BF10B50446AC
:1009BC00074A084B1068A3FB0030800901F0A0F82F
:1009CC00214600224FF0FF3001F058F8002010BDF6
:1009DC0000000020D34D6210074A08B513680320AD
:1009EC0043F01003136001F037F80020FFF7DEFF2F
:1009FC00FFF704FF002008BD00200240024A1368E4
:100A0C0001331360704700BF28030020014B1868A6
:100A1C00704700BF280300202DE9F041036882B025
:100A2C00DD07044630D5AD494A6802F00C02042AB1
:100A3C0000F0FA804A6802F00C02082A00F0F080FC
:100A4C006368B3F5803F00F07481002B00F00481E3
:100A5C00B3F5A02F00F0A981A04B1A6822F48032C4
:100A6C001A601A6822F480221A60FFF7CFFF9B4DA0
:100A7C00064605E0FFF7CAFF801B642800F21781C9
:100A8C002B689A03F6D523689F0728D5934A51689B
:100A9C0011F00C0F00F0A980516801F00C0108292D
:100AAC0000F09F802369002B00F0328101228C4BD7
:100ABC008A4D1A60FFF7AAFF064605E0FFF7A6FF6E
:100ACC00801B022800F2F3802B689807F6D52B6860
:100ADC00626923F0F80343EAC2032B6023681A0708
:100AEC005DD45D073AD57D4BDA69D00000F1A68064
:100AFC000125DA6942F08052DA61DB6903F0805338
:100B0C000093009B774B1A68D10540F1BF80E368D6
:100B1C00012B00F01481002B00F0CD80052B6F4BC6
:100B2C001A6A00F04F8122F001021A621A6A22F04E
:100B3C0004021A62FFF76AFF684E804641F288375A
:100B4C0006E0FFF763FFA0EB0800B84200F2AF80AD
:100B5C00336A9B07F5D5002D40F0F780E369D3B1DC
:100B6C005E4D6A6802F00C02082A45D0022B4FF049
:100B7C0000025D4B00F0EF801A60FFF747FF2C4638
:100B8C00054605E0FFF742FF401B022800F28F806C
:100B9C0023689B01F6D4002002B0BDE8F081A36964
:100BAC00002B2DD00122514B4C4D1A60FFF72EFF1C
:100BBC00064604E0FFF72AFF801B022877D86B6AF1
:100BCC009B07F7D54A4B4B4A1B68A2FB03235B0AD6
:100BDC00019300BF019B5A1E0192002BF9D123688F
:100BEC007FE75268D6033FF55DAF3C4A1268950724
:100BFC0026D52269012A23D0012002B0BDE8F0815C
:100C0C003A4A364D1360FFF701FF064604E0FFF742
:100C1C00FDFE801B02284AD86B6A9F07F7D4DEE7DB
:100C2C004A68D0037FF50CAF2C4A126891037FF50C
:100C3C002BAF6268002A7FF427AFDDE7002561E760
:100C4C00264960690A6822F0F80242EAC0020A608A
:100C5C001A077FF546AFA2E703F1804303F504338F
:100C6C001A681D4622F480321A601A6822F4802217
:100C7C001A60FFF7CBFE064604E0FFF7C7FE801BA9
:100C8C00642814D82B689B03F7D4FCE61A681E461C
:100C9C0042F480721A60FFF7B9FE07463368DA0532
:100CAC003FF535AFFFF7B2FEC01B6428F6D9032021
:100CBC0002B0BDE8F08103F1804303F504331A6AF6
:100CCC001E4622F001021A621A6A41F2883822F09A
:100CDC0004021A62FFF79AFE074612E00010024067
:100CEC0000004242007000406000424280044242D8
:100CFC0000000020D34D6210FFF788FEC01B40455A
:100D0C00D5D8336A9807F7D4002D3FF427AF1CE0F1
:100D1C00344A354D1360FFF779FE064604E0FFF7C1
:100D2C0075FE801B0228C2D82B689907F7D423685C
:100D3C00D5E62D4A136843F48033136095E62A4AAE
:100D4C00136A43F001031362F4E6274AD36923F0D4
:100D5C008053D36102E71A60FFF758FE064604E0A1
:100D6C00FFF754FE801B0228A1D82B689901F7D4F9
:100D7C00226AB2F5803F2DD001251B4B606A596861
:100D8C00024321F4741119480A435A6005601C4649
:100D9C00FFF73CFE054604E0FFF738FE401B022837
:100DAC0085D823689A01F7D5F5E603F18043A3F5BE
:100DBC003C331A6842F480221A601A6842F480327A
:100DCC001A6052E642F004021A621A6A42F00102F8
:100DDC001A62AFE66B68A16823F400330B436B60B7
:100DEC00CAE700BF000042420010024060004242CD
:100DFC0070B50126022586B0154B0DF1180E0FCBE0
:100E0C000EE90F00134C8DF804608DF805506368E3
:100E1C0003F00C02082A0BD1C3F383427244DB03A8
:100E2C0012F8100C07D40C4B03FB00F006B070BD8D
:100E3C000A4806B070BD6368084AC3F34043734464
:100E4C0013F8143CB2FBF3F300FB03F006B070BDD7
:100E5C00104B00080010024000093D0000127A00FF
:100E6C004E4A136803F007038B420BD2136823F02E
:100E7C0007030B431360136803F00703994201D077
:100E8C000120704703682DE9F0419A0706D5444CC0
:100E9C008568626822F0F0022A436260DF0706462A
:100EAC000C4622D542683E4B012A1B6872D0022A9E
:100EBC006AD0990729D53A4D41F288386B6823F0EE
:100ECC00030313436B60FFF7A1FD73680746012B07
:100EDC0049D0022B05D151E0FFF798FDC01B4045CE
:100EEC0055D86B6813F00C0FF6D12C4A136803F02D
:100EFC0007039C420CD2136823F0070323431360AF
:100F0C00136803F007039C4202D00120BDE8F08176
:100F1C0033685A0706D52249F0684A6822F4E06221
:100F2C0002434A601B0707D51D4A3169536823F4F5
:100F3C00605343EAC1035360FFF75AFF184B19493A
:100F4C005B68194AC3F30313CB5C20FA03F300204C
:100F5C001360FFF72BFD0020BDE8F081FFF756FD75
:100F6C00C01B404513D86B6803F00C03042BF5D160
:100F7C00BBE7FFF74BFDC01B404508D86B6803F07F
:100F8C000C03082BF5D1B0E7980194D4BDE70320EE
:100F9C00BDE8F0819D038ED4B7E700BF002002406E
:100FAC0000100240604B000800000020014B186844
:100FBC00704700BF00000020044B05495B68054AE0
:100FCC00C3F30223CB5C1068D8407047001002407A
:100FDC00704B000800000020044B05495B68054A73
:100FEC00C3F3C223CB5C1068D8407047001002409A
:100FFC00704B000800000020436A9A6A12F0500FF0
:10100C001ED19A6A196842F4007210B59A628A6805
:10101C0002F46022B2F5602F03D0184601F082FD75
:10102C0010BDDA68002AF8D19A6A22F480729A62AA
:10103C009A6AD204F1D49A6A42F001029A62ECE7FD
:10104C001B6A1B6B184700BF704700BF08B5406A8E
:10105C00FFF7FAFF08BD00BF704700BF08B5436A31
:10106C009A6A184642F040029A62DA6A42F0040226
:10107C00DA62FFF7F1FF08BD0246002070B492F867
:10108C00243083B0012B019054D001204B681F26D3
:10109C00062B82F82400146824D803EB8303053B49
:1010AC00656B08689E4025EA060500FA03F32B439E
:1010BC006363092826D9072600EB40038D681E3B85
:1010CC00E1689E409D4021EA06032B43E360A0F1BA
:1010DC001003012B25D90020002382F8243003B003
:1010EC0070BC70470C2B03EB830327D80868233B99
:1010FC00256B9E4025EA060500FA03F32B430928CD
:10110C002363D8D80725896800EB40062369B540CE
:10111C00B14023EA05030B432361A0F11003012B1B
:10112C00D9D81A4B9C4214D0936A012043F0200367
:10113C009362D1E7022003B070BC7047413BE56A73
:10114C0008689E4025EA060500FA03F32B43E36288
:10115C00AFE7A3681B02BED4A368102843F40003B6
:10116C00A360B8D10A4B0B491B68A1FB03139B0C62
:10117C0003EB83035B000193019B002BABD0019B22
:10118C00013B0193019B002BF9D1A4E70024014002
:10119C000000002083DE1B43002370B5026882B080
:1011AC0001939368DB0721D4184B194C1B68916889
:1011BC00A4FB034341F001019B0C91600193019B43
:1011CC002BB1019B013B0193019B002BF9D10546EF
:1011DC00FFF71CFC064604E0FFF718FC801B0228F6
:1011EC0007D82B689C6814F00104F5D0002002B0DD
:1011FC0070BD0120AB6A85F8244043F01003AB624C
:10120C00EB6A0343EB6202B070BD00BF000000202C
:10121C0083DE1B43F8B53F4D0468AC4260D005F546
:10122C008065AC425CD090F82440012C02D10225A0
:10123C002846F8BD012380F8243017460E46044694
:10124C00FFF7AAFF0546002852D1A36A216823F4B0
:10125C007063314A23F0010343F480739142A3621B
:10126C004BD0A36A23F48013A3624B685A0505D5AF
:10127C00A36A23F4405343F48053A362A36A6FF030
:10128C00020213F4805318BFE36A206A18BF23F0DC
:10129C000603E3620023DFF888E084F82430C0F80A
:1012AC0028E01E4BDFF87CE0C362C0F830E00A6037
:1012BC003B468F68324647F480778F604C3101F0A3
:1012CC005DF822682846936803F46023B3F5602F19
:1012DC0093680CBF43F4A00343F480139360F8BDF0
:1012EC000C4B5B6813F4702F9DD001252846F8BD7C
:1012FC000023284684F82430F8BD064B5A6812F4B3
:10130C00702FAED0A26A42F48012A2625B685B05B9
:10131C00B4D5ADE700240140002801405910000865
:10132C00051000086910000838B503689A68D207E0
:10133C0001D4002038BD9A68044622F001029A605C
:10134C00FFF764FB054623689B68DB07F1D5FFF7C5
:10135C005DFB401B0228F6D90120A36A43F0100361
:10136C00A362E36A0343E36238BD00BF002863D085
:10137C00F8B5836A0446002B45D02046FFF7D4FF0E
:10138C00A36A13F0100338D1002836D1A26A616821
:10139C0022F48852E669A56822F00202E76842F05E
:1013AC0002023143B5F5807FA26241EA470130D099
:1013BC00012D4CD06269012A4FD0064622683B4B66
:1013CC00556825F46945556095682B400B4393602F
:1013DC00D36A374D23F470033343D36293681D40B3
:1013EC00A9422BD00120A36A23F0120343F010036F
:1013FC00A362E36A0343E362F8BDA36A012043F0EE
:10140C001003A362F8BDC36280F82430FEF7DCFE43
:10141C00B3E76369012B45D02268244B556825F44A
:10142C00694545F48075556095682B400B43936076
:10143C002369013B1E05CBE7012070470023E362C3
:10144C00A36A23F0030343F00103A362F8BD6369AD
:10145C00012B08BF4FF48073DED1E7B1A26A42F0D2
:10146C002002A262E26A42F00102E26222680F4E9E
:10147C005768B5F5807F27F4694743EA0703536043
:10148C00936806EA030646EA01069660D0D0012D61
:10149C00CED000269CE7A269013A43EA423343F4DA
:1014AC000063E3E72B46002FD8D1F4E7FDF7E1FF0B
:1014BC00FE0E1FFF026AF0B422F001028E68026277
:1014CC00036A114D476882690C6823F0020322F00D
:1014DC007302A84243EA060342EA040206D04968B2
:1014EC0047608261F0BC416303627047CE684C690F
:1014FC008D6923F0080327F4407733432C4323F002
:10150C0004032743EBE700BF002C0140026AF0B450
:10151C0022F480728E680262036A124D4768C269B7
:10152C000C6823F4007322F07302A84243EA0623EA
:10153C0042EA040206D049684760C261F0BCC1634C
:10154C0003627047CE684C698D6923F4006327F4FD
:10155C00405743EA06232C4323F4806347EA0417DD
:10156C00E9E700BF002C0140026AF0B422F480527B
:10157C008F680262036A0D4E4568C2690C6823F4D9
:10158C00005322F4E642B04243EA073342EA042213
:10159C0006D049684560C261F0BC016403627047C3
:1015AC004C6925F4804545EA8415F2E7002C01408E
:1015BC0003680020DA6842F00102DA601A6842F02F
:1015CC0001021A60704700BF704700BF90F83C30B2
:1015DC00012B40D00222F0B40125036880F83D2095
:1015EC009A680C6822F47F4222F07702402C80F833
:1015FC003C509A6073D018D9702C60D02DD9B4F5AA
:10160C00805F57D0B4F5005F1CD18A684D68CC68F8
:10161C0099682A4342EA042221F47F410A439A60E2
:10162C009A6842F480429A600CE0102C32D038D97F
:10163C00202C6CD0302C05D19A6822F0700242F02C
:10164C0037029A600023F0BC012280F83C3080F80D
:10165C003D201846704702207047502C5ED0602CFD
:10166C00F0D11C6A4D6824F01004CE681C62996994
:10167C001A6A21F4704122F0A00242EA051241EAF2
:10168C00063199611A629A6822F0700242F0670280
:10169C009A60D7E79A6822F0700242F017029A60BB
:1016AC00D0E7002CCED19A6822F0700242F00702EB
:1016BC009A60C7E79A6822F007029A60C2E78A68C4
:1016CC004D68CC6899682A4342EA042221F47F4190
:1016DC000A439A609A6842F077029A60B2E71D6AF0
:1016EC001E6A4C6826F00106CF681E629A6925F0C6
:1016FC000A0122F0F00242EA071221439A611962B0
:10170C009A6822F0700242F047029A609AE79A684F
:10171C0022F0700242F027029A6093E71D6A1E6A5B
:10172C004C6826F00106CF681E629A6925F00A0102
:10173C0022F0F00242EA071221439A6119629A6878
:10174C0022F0700242F057029A607BE7704700BFAC
:10175C00704700BF704700BF704700BF036810B5EB
:10176C001A690446910702D5DA68920762D41A699D
:10177C00500702D5DA68510749D41A69120702D505
:10178C00DA68100731D41A69D20602D5DA68D006A5
:10179C0018D41A69D10702D5DA68D2076BD41A6942
:1017AC00100602D5DA6811066DD41A69520602D5F4
:1017BC00DA68500657D41A69910602D5DA6892068F
:1017CC0049D410BD6FF0100108221961DB69204665
:1017DC0013F4407F227761D1FFF7B8FF2046FFF763
:1017EC00B9FF002223682277D3E76FF008010422A7
:1017FC001961DB6920469907227755D1FFF7A6FFBF
:10180C002046FFF7A7FF002223682277BBE76FF083
:10181C000401022219619B69204613F4407F227750
:10182C003FD1FFF793FF2046FFF794FF0022236878
:10183C002277A2E76FF00201012219619B690277FE
:10184C009B0728D1FFF782FF2046FFF783FF00227A
:10185C00236822778BE76FF020022046BDE810400A
:10186C001A6100F0C9BC6FF0400220461A61FFF704
:10187C0073FF23689FE76FF0010220461A6101F0A5
:10188C0041F923688BE76FF0800220461A6100F063
:10189C00B5FC236889E7FFF75BFFD8E7FFF758FF34
:1018AC009FE7FFF755FFC1E7FFF752FFABE700BF1C
:1018BC001D4A0368904221D0B0F1804F30B414D04F
:1018CC00A2F59432904210D002F5806290420CD076
:1018DC004D6923F080032B438C680A680360012355
:1018EC00C462826230BC436170474A6823F0700363
:1018FC001343CA6823F440731343E9E74A6823F09F
:10190C0070031343CA6823F4407313434A6923F0EA
:10191C008003134303608B68C3620B6883620B699B
:10192C000363012343617047002C0140B8B190F868
:10193C003D3010B503F0FF0204465BB10223206872
:10194C0084F83D30211DFFF7B3FF0123002084F8FC
:10195C003D3010BD80F83C20FEF72EFDEEE7012057
:10196C00704700BFB8B190F83D3010B503F0FF02DE
:10197C0004465BB10223206884F83D30211DFFF73B
:10198C0097FF0123002084F83D3010BD80F83C20E7
:10199C00FFF71AFEEEE70120704700BF026AF0B4B1
:1019AC0022F010028E680262036A124D4768826947
:1019BC000C6823F0200322F4E642A84243EA061303
:1019CC0042EA042206D0496847608261F0BC816318
:1019DC0003627047CE684C698D6923F0800327F44D
:1019EC00406743EA06132C4323F0400347EA84077D
:1019FC00E9E700BF002C014090F83C30012B1CD0D3
:101A0C0010B502230446012084F83D3084F83C00D4
:101A1C000C2A0BD8DFE802F0170A0A0A070A0A0A8E
:101A2C001B0A0A0A13002068FFF7B8FF01230020E5
:101A3C0084F83D3084F83C0010BD022070472068CB
:101A4C00FFF792FDF2E72068FFF734FDEEE7206820
:101A5C00FFF75CFDEAE700BF4FF6FF01064A000204
:101A6C00D36800F4E0600B4043F0BF6343F40033F1
:101A7C000343D360704700BF00ED00E0184B70B417
:101A8C00DC68C4F30224C4F10706042E04F1040339
:101A9C0028BF0426062B17D90125033CA540013D80
:101AAC002A400123B340013B1940A140002841EAE0
:101ABC0002010CDB090100F16040C9B200F5614084
:101ACC0080F8001370BC704700221446E9E7054B00
:101ADC0000F00F000901C9B20344197670BC7047BD
:101AEC0000ED00E0FCEC00E0012300F01F01034AD4
:101AFC0040098B4042F82030704700BF00E100E005
:101B0C000138B0F1807F0DD230B4F02500220721CE
:101B1C00054B064C586084F82350104630BC9A6034
:101B2C00196070470120704710E000E000ED00E004
:101B3C00044A042813680CBF43F0040323F0040385
:101B4C001360704710E000E0704700BF08B5FFF766
:101B5C00FBFF08BD2DE9F04782460468C168226985
:101B6C00836822F440520A432261E2680069DAF881
:101B7C00141022F4B052034322F00C020B43134313
:101B8C00E3606369DAF81810514A23F440730B438D
:101B9C009442636159D0FFF70FFADAF8043000EB86
:101BAC00800000EB80009B00B0FBF3F3494F4FF03B
:101BBC006408A7FB03235B091D01FFF7FDF9DAF8A5
:101BCC00042000EB8000930000EB8000B0FBF3F6E8
:101BDC00FFF7F2F9DAF8042000EB8000930000EB39
:101BEC008000B0FBF3F3A7FB03235B0908FB136333
:101BFC001B013233A7FB03235B0903F0F006FFF74D
:101C0C00DBF9DAF8042000EB800000EB8000930095
:101C1C00B0FBF3F9FFF7D0F9DAF8043000EB8000F1
:101C2C0000EB80009B00B0FBF3F3A7FB03235B09E5
:101C3C0008FB13931B013233A7FB0323C3F343139A
:101C4C0033432B44A360BDE8F087FFF7C5F9DAF8FE
:101C5C00043000EB800000EB80009B00B0FBF3F342
:101C6C001C4F4FF06408A7FB03235B091D01FFF712
:101C7C00B3F9DAF8042000EB8000930000EB80004D
:101C8C00B0FBF3F6FFF7A8F9DAF8042000EB8000BC
:101C9C00930000EB8000B0FBF3F3A7FB03235B097D
:101CAC0008FB13631B013233A7FB03235B0903F00F
:101CBC00F006FFF791F9DAF8042000EB80009300AE
:101CCC0000EB8000B0FBF3F9FFF786F9A4E700BF47
:101CDC00003801401F85EB5160B338B590F83930AE
:101CEC00044603F0FF0203B32423226884F839303E
:101CFC00D368204623F40053D360FFF72BFF002555
:101D0C002021236828461A6922F490421A615A69E4
:101D1C0022F02A025A61DA6842F40052DA60E56372
:101D2C0084F8391084F83A1038BD80F83820FEF762
:101D3C003FFCD9E701207047F8B590F83940202CCA
:101D4C0001D00220F8BD51B34AB390F83840012CB1
:101D5C00F7D00446002613464FF0210E0127006BE6
:101D6C00E284104AA384E66384F83870216284F814
:101D7C0039E00D4F0D4D826222684663C7620563E0
:101D8C00043200F0FBFA6FF04002236830461A6010
:101D9C005A6984F8386042F080025A61F8BD01201B
:101DAC00F8BD00BF511E0008811E0008611F00080D
:101DBC00F0B590F83A4083B0202C02D0022003B04A
:101DCC00F0BD002935D0002A33D090F83830012BE3
:101DDC00F4D004460025134601270A462226406B00
:101DEC001549A262A385E56384F8387084F83A60DB
:101DFC00124F8162124E21684563C762066304313B
:101E0C0000F0BCFA236801951A68284601925A68BA
:101E1C0084F838500192019ADA6842F48072DA60E0
:101E2C005A6942F001025A615A6942F040025A6101
:101E3C00C5E70120C3E700BF8D1E0008511F000835
:101E4C00611F000808B50368406A1B6813F0200383
:101E5C000AD10268C384536923F080035361D368A9
:101E6C0043F04003D36008BD00F044FE08BD00BF42
:101E7C00704700BF08B5406AFFF7FAFF08BD00BF06
:101E8C0008B50368406A1B6813F0200310D12021A9
:101E9C000268C385D36823F48073D360536923F03D
:101EAC0001035361536923F04003536180F83A10E6
:101EBC0000F018FE08BD00BF8368B3F5805F2CD01E
:101ECC00036973B10368826A5B68511C03F07F037A
:101EDC0081621370C38D013B9BB2C38543B100205B
:101EEC0070470268836A5268591C81621A70F1E764
:101EFC0010B520240268D16821F02001D160D1688E
:101F0C0021F48071D160516921F00101516180F897
:101F1C003A4000F0E7FD002010BD0269836A3AB92F
:101F2C0002685268C2F3080223F8022B8362D1E7DD
:101F3C0002685268D2B223F8012B8362CAE700BF51
:101F4C00704700BF08B5406AFFF7FAFF08BD00BF35
:101F5C00704700BF08B5436A1A68506993F8391086
:101F6C0021291CD0506993F83A10222907D0DA6B3A
:101F7C00184642F01002DA63FFF7EAFF08BD41068B
:101F8C00F5D500212020D985D16821F49071D1603C
:101F9C00516921F00101516183F83A00E7E700062D
:101FAC00E0D500212020D984D16821F0C001D16076
:101FBC0083F83900D6E700BF036870B51A68044689
:101FCC001607DD6859694AD011F0010153D0D607C4
:101FDC0005D5E80503D5E06B40F00100E06356073A
:101FEC007BD5002900F08580E16B900741F0020160
:101FFC00E16377D5E16B41F00401E163110773D420
:10200C00E16B00292AD0910605D5AA0603D594F8D0
:10201C003A20222A7DD05D69E16B0E0702D415F0BF
:10202C0040057BD02021DA6822F49072DA605A697C
:10203C0022F001025A6184F83A105A6955065FD5AC
:10204C005A69616B22F040025A61002958D03C4B0E
:10205C0008464B6300F0D6F9002855D170BD9606A2
:10206C000CD5A9060AD590F83A30222BF6D1BDE84A
:10207C007040FFF721BF15F4907FA8D110060ED445
:10208C005606EBD56D06E9D52021DA68204622F0FC
:10209C004002DA6084F8391000F02CFD70BD29067E
:1020AC00EED594F83920212AD8D1A268B2F5805FF8
:1020BC00226A38D0511C216212785A60E28C013AA3
:1020CC0092B2E284002AC9D1DA6822F08002DA6086
:1020DC00DA6842F04002DA6070BD96070BD5002931
:1020EC0088D18DE711078BD5E16B41F00801E163D5
:1020FC0086E7900784D4100782D5002980D0F3E7B7
:10210C002046FFF725FF70BD606BBDE87040436B48
:10211C0018472046FFF7D0FE23687CE72046FFF7E0
:10212C0017FFE56370BD11882069C1F30801596080
:10213C0010B902322262C1E701322262BEE700BF4F
:10214C0051210008002208B5436ADA851846DA8462
:10215C00FFF7FEFE08BD00BF90F83C30012B22D0EB
:10216C00024610B40024CB68886823F44073034300
:10217C00486823F480630343086823F40063034333
:10218C00086923F480530343486923F40053034341
:10219C00886923F44043116803434B64204682F85A
:1021AC003C4010BC70470220704700BF90F83C3098
:1021BC00012B1FD002460220F0B500250126136822
:1021CC0082F83D005C68D1F800E024F070045C609B
:1021DC0058684F6840EA0E0058609C68284624F006
:1021EC0080049C6099683943996082F83D6082F85C
:1021FC003C50F0BD02207047704700BF704700BFD5
:10220C002DE9F0410446006882B0C30727D53B4B4B
:10221C00DA69D7003BD53A4B00251A68D60544D568
:10222C00364A136A13F440730FD0616801F440709E
:10223C0083420BD001270026136A324923F44070E5
:10224C000F600E60D907106246D461682B4A136A7E
:10225C0023F440730B431362002D38D1206883079D
:10226C000DD410F0100007D00020244AE168536808
:10227C0023F480030B43536002B0BDE8F0811F4A86
:10228C00A168536823F440430B435360E9E7DA69D0
:10229C00012542F08052DA61DB6903F0805301932F
:1022AC00019B174B1A68D605BAD41A681E4642F41D
:1022BC0080721A60FEF7AAFB07463368D805AFD4C4
:1022CC00FEF7A4FBC01B6428F7D90320D4E7D3691D
:1022DC0023F08053D361C1E71646FEF797FB41F21A
:1022EC008837804605E0FEF791FBA0EB0800B8426A
:1022FC00EBD8336A9A07F6D5A7E700BF0010024067
:10230C00007000404004424200282ED00346F0B436
:10231C00002401268768426805681549C0683A435D
:10232C00144F294402431869A7FB01715F690243EA
:10233C003A439F6928683A43DF6920F47F503A4357
:10234C0020F030000C4F090902438900DF6320465E
:10235C0019642A609C62DC621C635C639C6383F876
:10236C00204083F82160F0BC70470120704700BF0B
:10237C00F8FFFDBFCDCCCCCC00000240F0B590F8FE
:10238C002040012C0CD0012590F8214080F82050E1
:10239C00AC4208D00022022380F820201846F0BD61
:1023AC0002231846F0BD00264FF0020C0568866328
:1023BC002E68076CD0F83CE0BC4026F0010647685C
:1023CC0080F821C02E60CEF804406B60C36A102FD9
:1023DC000BBFAA60A960E960EA604BB12B6843F0BF
:1023EC000E032B602A68002342F001022A60D5E715
:1023FC002B6823F004032B602B6843F00A032B603B
:10240C00F0E700BF38B590F82130022B04D004223D
:10241C0001248263204638BD03681D491A688B422B
:10242C0022F00E021A601A6822F001021A6021D002
:10243C00184A93421CD0143293421FD01432934248
:10244C001FD0143293421FD0143293420CBF4FF45E
:10245C0080134FF08073012100240F4D426B6B6091
:10246C0080F8211080F8204032B19047204638BDCA
:10247C001023F0E70123EEE71446CBE74FF480730B
:10248C00E9E74FF48053E6E74FF48033E3E700BF0E
:10249C00080002401C000240000002400422F0B47C
:1024AC00C66B016C346803688A4022421D681FD0D9
:1024BC006F071DD51A68920603D41A6822F004021D
:1024CC001A603F4A93425DD01432934262D0143268
:1024DC00934269D0143293426CD0143293425BD045
:1024EC00143293420CBF4FF480034FF080634AE0E8
:1024FC0002228A40224222D0AF0720D51A689106C8
:10250C0006D401211A6822F00A021A6080F8211000
:10251C002B4A93422CD01432934243D01432934220
:10252C0045D01432934248D01432934237D01432EF
:10253C0093420CBF4FF400134FF0007319E00822C4
:10254C008A4022421CD02A071AD5012200271C6877
:10255C00056B24F00E0402FA01F11C6071608263B9
:10256C0080F8212080F8207055B12B46F0BC18471C
:10257C0002230021134C826A636080F820103AB960
:10258C00F0BC704704230F49C26A4B60002AF7D095
:10259C00F0BC10474023F6E74FF48023F3E74FF4E9
:1025AC000033E6E72023E4E74FF48063EBE74FF4D6
:1025BC000073DEE74FF48043E5E74FF40053D8E7B0
:1025CC0008000240000002402DE9F04F4FF00008D7
:1025DC0085B043466FF01F06DFF8E0E1DFF8E0C19D
:1025EC00704F009005E00133102B06F1040600F04B
:1025FC008B8001220C689A401440A242F3D14D68A2
:10260C00122D00F0A58000F28E80022D00F0A78024
:10261C0040F28380032D00F09F80112D02D1CA68F7
:10262C0002F10408FF2C72D8009A4FEA830A9146F3
:10263C0012680F2505FA0AFB22EA0B0208FA0AFABD
:10264C0042EA0A02C9F80020D1F804A01AF0805F0F
:10265C00C9D0DEF8189023F0030249F00109CEF836
:10266C001890DEF8189002F1804209F00109CDF8BB
:10267C000C9002F5803203F00309DDF80CB04FEA40
:10268C008909D2F808B005FA09F52BEA0500019082
:10269C000098604579D0444DA84279D0434D0098BC
:1026AC00A8427AD0424D0098A8420CBF4FF0030BC1
:1026BC004FF0040B0BFA09F901981AF4803F40EA29
:1026CC00090595603A6803F1010314BF2243A24344
:1026DC003A607A681AF4003F14BF2243A2437A602E
:1026EC00BA681AF4801F14BF2243A243BA60FA6876
:1026FC001AF4001F14BF144322EA0404102BFC60CC
:10270C0006F104067FF475AF05B0BDE8F08F0098B4
:10271C00B246426800F104098BE7A5B1012D81D1C5
:10272C00D1F80C807EE7234885420CD01BD9224877
:10273C00854208D000F58030854204D0DFF88490C3
:10274C004D457FF46FAF8D68BDB94FF0040869E754
:10275C00CA6802F10C0865E74FF0000862E7CA6826
:10276C0002F108085EE7DFF860904D45EBD009F503
:10277C0080394D457FF456AFE5E70098012D0CBF2D
:10278C00026142614FF008084CE74FF0000993E7F3
:10279C004FF0010B0BFA09F98EE74FF0020B0BFA15
:1027AC0009F989E700040140000C014000100140C8
:1027BC0000140140000021100000311000100240F4
:1027CC00000801400000221000001110836819421B
:1027DC0014BF01200020704702B909040161704741
:1027EC002DE9F04180460F4616461D46D8F80040AC
:1027FC0001E06B1C0AD1A06837EA00030CBF012072
:10280C0000208642F5D10020BDE8F0813DB1FEF7F5
:10281C00FDF8069BC01A8542E8D8D8F800406368DA
:10282C00D8F8042023F0E003B2F5827F636017D060
:10283C00D8F82830B3F5005F08D00122002388F8BF
:10284C00512088F850300320BDE8F0814DF6FF721E
:10285C00236813402360236843F400532360ECE7A0
:10286C00D8F80830B3F5004F02D0B3F5806FDFD144
:10287C00236823F040032360DAE700BF2DE9F04121
:10288C00044690F8500084B0012803D1022004B013
:10289C00BDE8F0811D46012384F850300E46904669
:1028AC00FEF7B4F8074694F85100C0B2012809D0DD
:1028BC0002200122002384F8512084F8503004B007
:1028CC00BDE8F081002EF4D0B8F1000FF1D0002358
:1028DC000321A26884F85110B2F5004F6365A3631D
:1028EC00A38763642364A4F836802663E387A4F883
:1028FC00348023686BD0A26AB2F5005F5DD01A6891
:10290C00520603D41A6842F040021A60E268B2F52B
:10291C00006F62682BD052B1E28E92B2012A06D0BF
:10292C00E38E9BB273B123689A68920715D516F89B
:10293C00012B1A73E38E013B9BB2E386E38E9BB2B1
:10294C00002BF0D100972B46012202212046FFF7E5
:10295C0047FF002840D00320ABE7002DFBD06B1CB9
:10296C00DED0FEF753F8C01B8542D9D8F3E75AB135
:10297C00E28E92B2012A07D0E38E9BB2002BE1D0FB
:10298C0023689A6890070ED536F8022BDA60E38E2E
:10299C00013B9BB2E386E38E9BB2002BD2D0236823
:1029AC009A689007F0D4002DD5D0691CE4D0FEF7BE
:1029BC002DF8C01B8542DFD8CDE74DF6FF711A68A4
:1029CC000A401A601A6842F400521A6097E71A68B3
:1029DC0042F480421A608EE7024600972B46802113
:1029EC002046FFF7FDFE30B12022636D012013431A
:1029FC00636562655DE7A36833B922680393D368A6
:102A0C00039393680393039BA36AB3F5005F04D00D
:102A1C00606D003018BF01204BE72268136843F447
:102A2C0080531360F4E700BF002838D0F8B590F855
:102A3C0051300446002B2FD0022600200121A26821
:102A4C006368E568134322692B4365691343E269A4
:102A5C002B43256A84F85160A769A66A13432B435C
:102A6C0022683D0C334307F400773B43676A1668D2
:102A7C0005F004053D43E76A26F040061660136036
:102A8C0055601761D369074D23F400632870D36137
:102A9C00606584F85110F8BDFDF726FECCE70120E7
:102AAC00704700BF2C03002008B5FDF795FFFDF71C
:102ABC0017FFFDF709FCFDF7CFFBFDF757FBFDF703
:102ACC0057FDFDF7E7FD2C2000F0C3FE044600F097
:102ADC00CBFA034B20461C6000F09CFDFEE700BFC8
:102AEC0030030020024B186808B100F0FDBD7047A0
:102AFC0030030020024B186808B100F007BB704788
:102B0C00300300200268054B9A4200D07047044BFA
:102B1C0018680028FAD000F02FBB00BF002C014031
:102B2C0030030020024B186808B100F019BB704745
:102B3C00300300200022027042704280704700BFB8
:102B4C004088704770B504460F4D0E46284600224B
:102B5C004FF48061FFF740FE284600224FF40061DD
:102B6C00FFF73AFE2146012201F8016F4FF47A7308
:102B7C000648FFF783FE2846BDE8704001224FF45B
:102B8C000061FFF729BE00BF000C0140D0020020FD
:102B9C002DE9F04104460F46164698460546152188
:102BAC00FFF7D0FF39462046FFF7CCFF20465F21C8
:102BBC00FFF7C8FF20467521FFF7C4FF31462046BA
:102BCC00174EFFF7BFFF20463F21FFF7BBFF3046F4
:102BDC0001224FF48061FFF7FFFD304600224FF4D5
:102BEC000061FFF7F9FD0F4F4FEA282305F8013F6D
:102BFC00294638464FF47A730122FFF73FFE2946E7
:102C0C0084F80180384601224FF47A73FFF736FEC0
:102C1C003046BDE8F04101224FF40061FFF7DCBD06
:102C2C00000C0140D00200202DE9F04F824683B009
:102C3C00084691460093BDF8308000F067FD0027F0
:102C4C008B460190FB000199C3F1200221FA03F598
:102C5C000BFA02F2203B2BFA03F315431D43009BA6
:102C6C000024DE19EDB2F6B202E00134082C0ED0CD
:102C7C0045FA04F3DB07F8D509EB0401C9B2434666
:102C8C00324650460134FFF783FF082CF0D1013750
:102C9C00082FD7D103B0BDE8F08F00BF2DE9F0416C
:102CAC00DB0803EB4303D20802EB8303DCB282B0F4
:102CBC005F2CBDF8207024D80D46097809B3064660
:102CCC00DFF8448006E00134E4B2602C19D015F82A
:102CDC00011FB1B1A1F120035E2BF4D8A8FB042392
:102CEC00DB0803EB4302A4EB8202D2000134009711
:102CFC0002F0F802DB003046E4B2FFF795FF602CDF
:102D0C00E5D102B0BDE8F081ABAAAAAA10B5094C76
:102D1C00012220460421FFF75FFD204600220421FA
:102D2C00FFF75AFD2046BDE8104001220421FFF7B1
:102D3C0053BD00BF000C014038B50C460546C91206
:102D4C004900FFF7FFFEC4F345112846FFF7FAFED2
:102D5C0061002846BDE8384001F03E01FFF7F2BEA5
:102D6C002DE9F04704460E4615469A4622219DF859
:102D7C002090BDF82480BDF82870FFF7E3FE3146A3
:102D8C002046FFF7DFFE29462046FFF7DBFE06EB69
:102D9C000A012046C9B2FFF7D5FE05EB0901204612
:102DAC00C9B2FFF7CFFE41462046FFF7C5FF3946B3
:102DBC002046BDE8F047FFF7BFBF00BF2DE9F0414B
:102DCC0007460D4600264FF0100884B07980002489
:102DDC002146103402950195CDF80080102332461F
:102DEC003846E4B2FFF7BCFF602CF1D11036F6B2D6
:102DFC00402EECD104B0BDE8F08100BF38B50446DC
:102E0C000D46FFF783FF2046AE21FFF79BFE2046C1
:102E1C002521FFF797FE20468121FFF793FE2046E0
:102E2C008021FFF78FFE20468221FFF78BFE204684
:102E3C008021FFF787FE20468321FFF783FE204683
:102E4C008021FFF77FFE20468721FFF77BFE20467F
:102E5C000C21FFF777FE20468A21FFF773FE2046F0
:102E6C006421FFF76FFE20468B21FFF76BFE204697
:102E7C007821FFF767FE20468C21FFF763FE204682
:102E8C006421FFF75FFE2046A021FFF75BFE204682
:102E9C007221FFF757FE2046A121FFF753FE204673
:102EAC000021FFF74FFE2046A221FFF74BFE2046E4
:102EBC000021FFF747FE2046A421FFF743FE2046E2
:102ECC00A821FFF73FFE20463F21FFF73BFE20469F
:102EDC00AD21FFF737FE20468E21FFF733FE20464B
:102EEC00B021FFF72FFE20460121FFF72BFE2046D5
:102EFC00B121FFF727FE20463121FFF723FE2046A4
:102F0C00B321FFF71FFE2046F021FFF71BFE2046E2
:102F1C00BB21FFF717FE20463A21FFF713FE204690
:102F2C00BE21FFF70FFE20463E21FFF70BFE204689
:102F3C002E21FFF707FE2046AF21FFF703FE2046A8
:102F4C002621FFF7FFFD20460121FFF7FBFD294657
:102F5C002046FFF733FF0123237038BD2DE9F041E4
:102F6C0016461F4608230D4684B0BDF82C4000932E
:102F7C00029401943A4631460446BDF82880FFF786
:102F8C00EFFEA5F120035E2B02D904B0BDE8F08161
:102F9C003B46324629462046CDF8288004B0BDE891
:102FAC00F041FFF741BE00BF2DE9F043DB0803EB16
:102FBC004303D20802EB8303DCB283B05F2CBDF871
:102FCC002870BDF82C801DD80D460978D1B1064665
:102FDC00DFF8389002E015F8011F99B1A9FB042322
:102FEC00DB0803EB4302A4EB8202D20001348DE830
:102FFC00800102F0F802DB003046E4B2FFF7AEFFCE
:10300C00602CE8D103B0BDE8F08300BFABAAAAAA3C
:10301C00704700BF012A08BF01600020704700BF45
:10302C00012A05D0022A01D10B68036000207047E9
:10303C0001600020704700BF012A05D0022A01D18F
:10304C000B6803600020704701600020704700BFD0
:10305C000268034B516903481A88FEF7DBB800BFBE
:10306C00040000208C0000202DE9F04101230025F4
:10307C0084B00446437083700570C570057145714A
:10308C00C5808560C560056145610C2000F0E1FBE1
:10309C0003460420A3611B605B609D6000F0D9FBBC
:1030AC008046184F184EFFF745FDC4F81C801C20B5
:1030BC000397029600F0CDFB80462B466A464FF4F0
:1030CC007A7100F031FB029BC4F820801BB1032203
:1030DC006946684698471C200397029600F0B9FB96
:1030EC00054600236A464FF47A7100F01DFB029BE3
:1030FC0065621BB10322694668469847204604B0B6
:10310C00BDE8F0811D3000082130000838B50446B8
:10311C00C06830B16369984203D000F0ADFB002366
:10312C00E360A26993680BB9637138BD13680B48EF
:10313C009D682968AA88E160FEF7FEFDA3699A687C
:10314C001C68013A9A60204600F0A9FB204600F06A
:10315C009DFB2846BDE8384000F098BB4C0200208F
:10316C00037803B9704710B50446406A00F030FB91
:10317C000023237010BD00BF10B50446006A00F098
:10318C002BFB606ABDE8104000F026BB38B50D4B38
:10319C0005461B8840695C0008B100F06DFB2046B9
:1031AC0000F068FB00210246631E8B4202F8011BF3
:1031BC00C8BFA31E03DD013B02F8011BFBD56861F0
:1031CC0038BD00BF0400002010B5044684B0184B75
:1031DC00184A406A694602930094039200F0BEFAC2
:1031EC00029B1BB10322694668469847124A134B4F
:1031FC001168606AA3FB0131890900F0ADFA104B2C
:10320C00104A206A694602930094039200F0A6FAD1
:10321C00029B1BB10322694668469847206A6421C9
:10322C0000F09AFA206A012100F0C8FA04B010BD2F
:10323C002D3000085D30000808000020D34D6210CE
:10324C0045300008AD33000810B5044682B0C069A3
:10325C00FFF776FCA27803465AB14FF47842E06946
:10326C000A498DE80C0012232022FFF79DFE02B0C4
:10327C0010BD4FF4FC62E06905498DE80C00122387
:10328C002022FFF791FE02B010BD00BFB04B00082A
:10329C00A84B000810B5044682B0C069FFF750FC7B
:1032AC00627803465AB14FF47842E0690A498DE8D6
:1032BC000C0009232022FFF777FE02B010BD4FF45B
:1032CC00FC62E06905498DE80C0009232022FFF718
:1032DC006BFE02B010BD00BFB04B0008A84B00083D
:1032EC0070B50C2182B00446C069FFF787FD4FF61C
:1032FC00FF734FF6E076E069012200931349002337
:10330C00FFF7CCFC124DE06909230096012211490C
:10331C00FFF7C4FC12230122E0690F490096FFF766
:10332C00BDFC28464FF40041FFF750FA4FF48041A2
:10333C0060702846FFF74AFAA0702046FFF7AAFFF4
:10334C00204602B0BDE87040FFF77EBF904B0008EE
:10335C00000C0140984B0008A04B000870B54FF4CE
:10336C00004104460D48FFF731FA4FF48041064600
:10337C000A48FFF72BFA63780546B34203D0667010
:10338C002046FFF787FFA378AB4205D0A5702046F7
:10339C00BDE87040FFF758BF70BD00BF000C014086
:1033AC000068FFF7DBBF00BFF8B54379044615464C
:1033BC000E46A3B1012B11D10820A46900F049FAE3
:1033CC0007460C203E60BD8000F043FA2146876022
:1033DC0000F05EFAA3680133A360F8BDF8BDE160AC
:1033EC0092B20348FEF7A8FC01236371F8BD00BF3D
:1033FC004C02002070B5054603200E4600F03AFA48
:10340C000346EC885E70240A1C709C7001460322F3
:10341C002846BDE87040FFF7C7BF00BF45F2023237
:10342C00F8B5C3880446934200F08E800ED9B3F5EC
:10343C00E64F25D0B3F5E84F6FD045F204429342E6
:10344C0031D045212046FFF7D5FF11E044F201327F
:10345C00934249D0B3F5A44FF3D14C4B41691A8830
:10346C00520012B2FFF7A0FF4F212046FFF7C2FF18
:10347C00002323712046E380BDE8F84000F08EB8AD
:10348C00424B02201D8800F0F5F903462E0A014636
:10349C00022220465D701E70FFF786FF4F212046EA
:1034AC00FFF7A8FFE4E78268394D53781078D1789C
:1034BC001B04927843EA00630B4343EA0223A5FB07
:1034CC000321344E1A4689093348336000F014FE48
:1034DC003168606AA5FB0131890900F03DF94F2183
:1034EC002046FFF787FFC3E783681B78002B39D191
:1034FC00C27812B10122E3702270012000F0A9F908
:10350C000346E5780146012220461D70FFF74CFF6B
:10351C004F212046FFF76EFFAAE71E4B04201E68C2
:10352C0000F0A8F900250346C6F30727014604223C
:10353C002046DE709F701D705D70FFF735FF4F21C8
:10354C002046FFF757FF93E78268104915785378A8
:10355C0043EA05230B80FFF719FE4F212046FFF7A6
:10356C0049FF85E7C378012BC7D001252378E57087
:10357C0013B100232370C0E7606A00F01DF9002826
:10358C00BBD12946606A00F019F9B6E704000020A7
:10359C00D34D621008000020784B0008F8B50446A3
:1035AC0000270AE0E58815F0FF061FD1CDB94521AB
:1035BC002046FFF71FFF2571E580A06810B100F0D1
:1035CC005BF9A7602579002DECD1012000F052F9B0
:1035DC0001220570A0600146BDE8F8400C48FEF7DA
:1035EC00E7BB2046BDE8F840FFF718BF304600F0B7
:1035FC0041F90021012E017008D002466FF001053F
:10360C0002F8011FAB1A3344D842F9D5B2B2E1E744
:10361C004C02002010B50446FFF7B8FD0C4A0D4BC8
:10362C00106840F2CF71A3FB0030C00C013880B29F
:10363C00FCF71EFF2046FFF7C7FD2046FFF7AEFF45
:10364C002046FFF74DFEBDE810400348FDF7B0BF24
:10365C000000002083DE1B4344010020012283680C
:10366C0002711B78433B312B38D8DFE803F01E374F
:10367C003737373737373737373737373723282DFB
:10368C0037373737373737373737373737373737BE
:10369C0037373737373737373737373737373219D1
:1036AC004FF4E843C380FFF779BF44F20133C38082
:1036BC00FFF774BF4FF4A443C380FFF76FBF45F20D
:1036CC000233C380FFF76ABF45F20443C380FFF7A0
:1036DC0065BF4FF4E643C380FFF760BF0023C38090
:1036EC000371FFF75BBF00BF027903465AB1012A91
:1036FC0004D00022C2801A71FFF750BFC288002A82
:10370C00F9D0FFF78BBEFFF7A9BF00BF2038C0B2BE
:10371C005E2804D8034B03EBC00003C8704700209D
:10372C0000217047B84B0008F8B504460020E06053
:10373C0096681F46216046B11546201D0222294677
:10374C00B047EA68AB682261E360002227756275B6
:10375C00A2612046F8BD00BF016070470023F0B5A0
:10376C008E6887B00546049316B30F4602AC20460C
:10377C000222B047D7F80CE0BE6894E803008DE84D
:10378C0003002B1D93E8030084E803009DE803006D
:10379C0083E80300EB682A690493EE600592C5F890
:1037AC0010E01BB1032221462046984707B0F0BD1C
:1037BC00DDF814E002ACE0E7407D7047012343756F
:1037CC0011B983698361704700238361704700BF1F
:1037DC0000234375704700BF437D2BB1836902689A
:1037EC00934202D00133836170470021037DC2688C
:1037FC0083F001034375816112B1036904301847EA
:10380C0010B500F051F800BF002103E00B4B5B58E2
:10381C00435004310A480B4B42189A42F6D30A4AD9
:10382C0002E0002342F8043B084B9A42F9D3FDF71F
:10383C002FF800F009FBFFF737F97047604F0008CD
:10384C00000000207000002070000020E803002021
:10385C00FEE710B5002814BF04460124204600F0F2
:10386C007BFB30B900F00AF808B900F069F9804721
:10387C00F4E710BDFFF7EDBF00F008B8024B186875
:10388C00BFF35B8F704700BF3403002000F06CBBAC
:10389C004B68016043604B68186048607047036870
:1038AC00426813605A60704708B500F049F900008F
:1038BC00244B1A68D0075CBF01221A60224B1A688D
:1038CC00D1075CBF01221A60204B1A68D2075CBF7B
:1038DC0001221A601E4B1A68D0075CBF01221A60C5
:1038EC001C4B1A68D1075CBF01221A601A4B1A686C
:1038FC00D2075CBF01221A60184B1A68D0075CBF54
:10390C0001221A60164B1A68D1075CBF01221A609B
:10391C00144B1A68D2075CBF01221A60124B1A684A
:10392C00D0075CBF01221A60104B1A68D1075CBF2C
:10393C0001221A600E4B1A68D2075CBF01221A6072
:10394C00704700BF64030020600300205C0300206C
:10395C005803002054030020500300204C03002087
:10396C004803002044030020400300203C030020B7
:10397C0038030020244B1A68D0075CBF01221A6060
:10398C00224B1A68D1075CBF01221A60204B1A68BF
:10399C00D2075CBF01221A601E4B1A68D0075CBFAD
:1039AC0001221A601C4B1A68D1075CBF01221A60F5
:1039BC001A4B1A68D2075CBF01221A60184B1A689E
:1039CC00D0075CBF01221A60164B1A68D1075CBF86
:1039DC0001221A60144B1A68D2075CBF01221A60CC
:1039EC00124B1A68D0075CBF01221A60104B1A6880
:1039FC00D1075CBF01221A600E4B1A68D2075CBF5C
:103A0C0001221A60704700BF94030020900300202D
:103A1C008C030020880300208403002080030020F6
:103A2C007C03002078030020740300207003002026
:103A3C006C03002068030020184B1A68D1075CBF88
:103A4C0001221A60164B1A68D2075CBF01221A6059
:103A5C00144B1A68D0075CBF01221A60124B1A680B
:103A6C00D1075CBF01221A60104B1A68D2075CBFE9
:103A7C0001221A600E4B1A68D0075CBF01221A6033
:103A8C000C4B1A68D1075CBF01221A600A4B1A68EA
:103A9C00D2075CBF01221A60704700BFB40300203C
:103AAC00B0030020AC030020A8030020A4030020D6
:103ABC00A00300209C03002098030020184B1A68D8
:103ACC00D1075CBF01221A60164B1A68D2075CBF83
:103ADC0001221A60144B1A68D0075CBF01221A60CD
:103AEC00124B1A68D1075CBF01221A60104B1A687E
:103AFC00D2075CBF01221A600E4B1A68D0075CBF5C
:103B0C0001221A600C4B1A68D1075CBF01221A60A3
:103B1C000A4B1A68D2075CBF01221A60704700BFBB
:103B2C00D4030020D0030020CC030020C8030020C5
:103B3C00C4030020C0030020BC030020B8030020F5
:103B4C0008B5062000F028FB012000F0CBFF000098
:103B5C008A892DE9F041054610070C465AD44B686A
:103B6C00002B05DC0B6C002B02DC0020BDE8F08187
:103B7C00E66A002EF9D0002312F480522F682B60D5
:103B8C0033D0606DA3895A0705D56368C01A636B7F
:103B9C000BB1236CC01A00230246E66A216A284640
:103BAC00B047431CA38906D129681D294BD82B4A41
:103BBC00CA40D60747D5002262602269D904226028
:103BCC0004D5421C01D12B6803B96065616B2F6071
:103BDC000029CAD004F14403994202D0284600F0CF
:103BEC00E1F900206063BDE8F081216A01232846D9
:103BFC00B047411CC6D12B68002BC3D01D2B01D064
:103C0C00162B01D12F60B0E7A38943F04003A381A9
:103C1C00BDE8F0810F69002FA7D0930718BF0023D0
:103C2C000E6808BF4B69A6EB07080F608B60B8F1F4
:103C3C00000F9ADD43463A46216A2846A66AB047E9
:103C4C00002807DCA38943F04003A3814FF0FF3029
:103C5C00BDE8F0810744A8EB0008E8E7010040202C
:103C6C0038B50B6905460C46DBB118B183690BB945
:103C7C0000F060F80C4B9C4209D16C68B4F90C3024
:103C8C007BB121462846BDE83840FFF761BF074BA2
:103C9C009C4201D1AC68F1E7054B9C4208BFEC6833
:103CAC00ECE7002038BD00BFD04E0008F04E0008F5
:103CBC00B04E0008014900F0A9B800BF6D3C0008E7
:103CCC00002310B504460360436083608181436622
:103CDC00C281036143618361194608225C3000F0A4
:103CEC0059F9054B24626362044BA362044BE362F3
:103CFC00044B236310BD00BFDD410008FF410008E9
:103D0C00374200085B42000870B568254A1E5543CF
:103D1C000E4605F1740100F091F9044640B1002102
:103D2C0080E842000C30A06005F1680200F032F926
:103D3C00204670BD836910B5044633BB8364C364ED
:103D4C000365124B124A1B688262984204BF01231E
:103D5C00836100F01FF86060204600F01BF8A06043
:103D6C00204600F017F80022E06004216068FFF79D
:103D7C00A7FF01220921A068FFF7A2FF022212214E
:103D8C00E068FFF79DFF0123A36110BD104F0008F1
:103D9C00C13C0008F8B51C4B07461E68B36913B943
:103DAC003046FFF7C7FF4836B4687368013B03D54C
:103DBC00336833B13668F7E7B4F90C506DB1683439
:103DCC00F4E704213846FFF79FFF30600028F1D15B
:103DDC000C2304463B602046F8BD4FF6FF73E3818D
:103DEC0001236566A3812560A56065602561656119
:103DFC00A5610822294604F15C0000F0CBF865634C
:103E0C00A563A564E564E6E7104F00082DE9F843C7
:103E1C0080468946002600F1480414B93046BDE8B6
:103E2C00F883A5686768013F01D52468F5E7AB897D
:103E3C00012B07D9B5F90E30013303D02946404682
:103E4C00C84706436835EEE770B500250C4E0D4C9F
:103E5C00A41BA410A54209D100F046FE00250A4E71
:103E6C000A4CA41BA410A54205D170BD56F82530F0
:103E7C0098470135EEE756F8253098470135F2E7BB
:103E8C00484F0008484F0008484F00085C4F000896
:103E9C0070B50E46B1F90E1090B0002914461D46AF
:103EAC0007DA00232B60B3891A0610D44FF4806311
:103EBC000EE001AA00F0F2F90028F2DB029A02F4FB
:103ECC007042A2F500535A425A412A60EEE7402351
:103EDC000020236010B070BD8B8973B59D0706461A
:103EEC000C4607D504F1470323602361012363616A
:103EFC0002B070BD01AB6A46FFF7CAFF00990546D8
:103F0C00304600F09BF848B9B4F90C309A05EFD460
:103F1C0023F0030343F00203A381E3E70D4BB362E9
:103F2C00A389206043F08003A381009B206163611F
:103F3C00019B5BB1B4F90E10304600F0C1F928B109
:103F4C00A38923F0030343F00103A381A3891D4339
:103F5C00A581CDE7C13C0008024B0146186800F072
:103F6C006DB800BF0C000020024B0146186800F031
:103F7C0019B800BF0C00002010B5C9B20244904221
:103F8C00034601D1002010BD1C7801308C42F6D1C3
:103F9C00184610BD03460244934200D1704703F803
:103FAC00011BF9E738B50546002943D051F8043C0C
:103FBC000C1F002BB8BFE41800F0A4F91E4A1368BC
:103FCC00104633B9636014602846BDE8384000F0F1
:103FDC009AB9A3420BD921686218934201BF1A689F
:103FEC005B685218226063600460EDE713465A6800
:103FFC000AB1A242FAD919685818A0420BD120680C
:10400C000144581882421960DED11068526801448C
:10401C0019605A60D8E702D90C232B60D4E72068CA
:10402C0021188A4201BF1168526809182160626028
:10403C005C60C9E738BD00BFD803002070B5CD1C4B
:10404C0025F0030508350C2D38BF0C25002D064630
:10405C0001DBA94203D90C233360002070BD00F0B2
:10406C0051F9234A1468214691B9224C23681BB993
:10407C00304600F059F820602946304600F054F8DC
:10408C00431C26D10C233046336000F03CF9E4E7A6
:10409C000B685B1B1AD40B2B0FD90B60CC18CD50B3
:1040AC00304600F030F904F10B00231D20F007001E
:1040BC00C31A1BD05A42E25070BD8C420BBF6368CE
:1040CC004B681360636018BF0C46E9E70C464968FF
:1040DC00CAE7C41C24F00304A04205D0211A3046C0
:1040EC0000F022F80130CDD02560D9E770BD00BFBB
:1040FC00D8030020DC0300200FB40A4B13B51C6856
:10410C0024B1A36913B92046FFF714FE05AB049A3A
:10411C00A1682046019300F01FF902B0BDE81040E1
:10412C0004B070470C00002038B50023054C054640
:10413C000846236000F0C8FC431C02D1236803B17D
:10414C002B6038BDE40300201F2938B504460D460A
:10415C0004D9162303604FF0FF3038BD426C12B106
:10416C0052F821304BB9204600F030F82A4601466F
:10417C002046BDE8384000F017B8012B0AD0591C76
:10418C0003D116230360012038BD0024284642F8D1
:10419C0025409847002038BD024B01461868FFF7B0
:1041AC00D3BF00BF0C00002038B50023064C0546D9
:1041BC0008461146236000F06FFC431C02D12368B3
:1041CC0003B12B6038BD00BFE403002000F054BCE9
:1041DC0010B50C46B1F90E1000F06CFB0028ABBF0B
:1041EC00636DA3891B1823F48053ACBF6365A38153
:1041FC0010BD2DE9F0411F468B890546DB050C46A9
:10420C00164605D502230022B1F90E1000F068F80D
:10421C00A389324623F48053A381B4F90E103B4694
:10422C002846BDE8F04100F017B810B50C46B1F9BE
:10423C000E1000F055F8431CA38915BF606523F4DC
:10424C00805343F48053A38118BFA38110BDB1F9EF
:10425C000E1000F013B8000038B50546084611469C
:10426C000022054C22601A46FCF780FB431C02D14D
:10427C00236803B12B6038BDE403002038B500235C
:10428C00054C05460846236000F0E6FB431C02D1B2
:10429C00236803B12B6038BDE403002038B500233C
:1042AC00064C054608461146236000F0DDFB431C16
:1042BC0002D1236803B12B6038BD00BFE40300209A
:1042CC0038B50023054C05460846236000F0DCFB9E
:1042DC00431C02D1236803B12B6038BDE4030020DA
:1042EC0038B50546084611460022054C22601A4690
:1042FC0000F0DAFB431C02D1236803B12B6038BDFC
:10430C00E403002070477047936810B4013B002B06
:10431C00936008DA9469A34202DBCBB20A2B02D178
:10432C0010BC00F0D9BA1368581C10601970C8B2D0
:10433C0010BC7047F8B506460F461446D518AC426B
:10434C0001D1002007E03A4614F8011B3046FFF774
:10435C00DBFF431CF3D1F8BD2DE9F04F9DB00C46AB
:10436C0017460393064618B183690BB9FFF7E2FCB5
:10437C007C4B9C4257D17468A38918075DD523697F
:10438C00002B5AD00023099320238DF82930302399
:10439C004FF0010B8DF82A30B846454615F8013B15
:1043AC00002B55D1B8EB070A0BD053463A462146A1
:1043BC003046FFF7BFFF013000F0C480099B534427
:1043CC00099398F80030002B00F0BC8000234FF0CC
:1043DC00FF3204930793059206938DF853301A938A
:1043EC00052229786048FFF7C7FD05F10108049BF9
:1043FC00002831D1D90644BF20228DF853201A074A
:10440C0044BF2B228DF853202A782A2A2CD0002145
:10441C000A20079AA84698F800300135303B092B42
:10442C006DD971B326E0514B9C4201D1B468A3E71E
:10443C004F4B9C4208BFF4689EE72146304600F083
:10444C009DFA00289ED04FF0FF301DB0BDE8F08FD4
:10445C00252BA7D0A846A0E7434A4546801A0BFA5D
:10446C0000F018430490BBE7039A111D12680391E6
:10447C00002A01DB079204E0524243F00203079248
:10448C00049398F800302E2B10D198F8013008F1D5
:10449C0001012A2B37D1039B08F102081A1D1B6856
:1044AC000392002BB8BF4FF0FF330593314D03221D
:1044BC0098F800102846FFF75FFD40B14023401BE1
:1044CC0003FA00F0049B08F101080343049398F8E5
:1044DC0000100622284808F101078DF82810FFF774
:1044EC004BFD002834D0254B03BB039B073323F033
:1044FC00070308330393099B4B4409934CE700FBD8
:10450C000232012186E700230A25184605938846C6
:10451C0098F800200131303A092A03D9002BC5D074
:10452C000590C3E705FB00200123F0E703AB0093E4
:10453C002246134B04A93046AFF30080B0F1FF3F85
:10454C008146D8D1A3895B063FF57DAF09987CE7FE
:10455C0003AB009322460A4B04A9304600F08AF8BC
:10456C00ECE700BFD04E0008144F0008F04E0008D6
:10457C00B04E00081A4F00081E4F00080000000043
:10458C00414300082DE9F04791461F468A680B69A4
:10459C0006469342B8BF1346C9F8003091F8432041
:1045AC000C46DDF8208012B10133C9F800302368C5
:1045BC00990642BFD9F800300233C9F8003025689B
:1045CC0015F0060507D104F1190AE368D9F80020A3
:1045DC009B1A9D422ADB94F843302268003318BFA3
:1045EC00012392062FD404F1430239463046C047CA
:1045FC00013022D02368E56803F00603042B18BFB2
:10460C000025D9F800204FF0000908BFAD1AA368A7
:10461C00226908BF25EAE5759342C4BF9B1AED18C1
:10462C001A344D451BD10020BDE8F08701235246BA
:10463C0039463046C047013003D14FF0FF30BDE85A
:10464C00F0870135C1E73020E11881F843005A1C8E
:10465C0094F845102244023382F84310C3E7012337
:10466C00224639463046C0470130E6D009F10109EF
:10467C00D7E700002DE9F04317460A7E85B06E2A75
:10468C00984606460C460C9B01F1430E00F0BC808C
:10469C001AD8632A2ED00AD8002A00F0C880582ACB
:1046AC0000F08A8004F1420584F842202AE0642A52
:1046BC0001D0692AF6D121681A6811F0800F23D035
:1046CC00111D1960136827E0732A00F0B48008D814
:1046DC006F2A2AD0702AE5D10A6842F020020A60BB
:1046EC0003E0752A21D0782ADCD178226F4984F82E
:1046FC00452064E01A6801F14205111D1960136828
:10470C0084F842300123A3E011F0400F02F10401C0
:10471C001960D7D0B2F90030002B03DA2D225B429E
:10472C0084F8432062490A2217E02068196810F0C7
:10473C00800F03D0081D18600B6806E010F0400FC6
:10474C0001F104001860F7D00B886F2A14BF0A22FD
:10475C0008225749002084F843006568002DA560A5
:10476C00C0F29C80206820F004002060002B3FD118
:10477C00002D40F095807546082A0BD12368DA0786
:10478C0008D5236962689A42DEBF302305F8013CE4
:10479C0005F1FF35AEEB05032361CDF800803B46F8
:1047AC0003AA21463046FFF7EDFE013055D14FF0FC
:1047BC00FF3005B0BDE8F08381F845203C49226804
:1047CC00186812F0800F00F104051D6001D0036819
:1047DC0002E05506FBD50388D00744BF42F0200207
:1047EC0022601BB9226822F0200222601022B1E75D
:1047FC007546B3FBF2F002FB1033CB5C05F8013DC0
:10480C0003460028F5D1B7E708681A6810F0800F46
:10481C00496904D0101D18601368196007E010F086
:10482C00400F02F1040018601368F6D019800023C1
:10483C0075462361B1E71A68111D196015680021CE
:10484C0062682846FFF798FB08B1401B60606368FC
:10485C002361002384F843309FE723692A463946B5
:10486C003046C0470130A2D023689B0707D50025EE
:10487C0004F11909E368039A9B1A9D4205DBE06871
:10488C00039B9842B8BF184693E701234A46394622
:10489C003046C04701308AD00135EBE7002BA7D159
:1048AC000B7804F1420584F8423065E7364F000876
:1048BC00254F000838B50546084611460022054C20
:1048CC0022601A4600F0F8F8431C02D1236803B1A9
:1048DC002B6038BDE4030020F8B50E46144605469F
:1048EC0018B183690BB9FFF725FA214B9C422AD1E9
:1048FC006C68A369A360A3891A072ED5236963B3D7
:10490C0023692068F6B2C01A63693746984204DB03
:10491C0021462846FFF7A4F928BBA3680130013BC8
:10492C00A36023685A1C22601E706369984204D0ED
:10493C00A389DB0719D50A2E17D121462846FFF784
:10494C008FF990B10FE00B4B9C4201D1AC68D0E7D2
:10495C00094B9C4208BFEC68CBE72146284600F087
:10496C000DF80028CCD04FF0FF373846F8BD00BF0B
:10497C00D04E0008F04E0008B04E0008324B70B517
:10498C001D6806460C4625B1AB6913B92846FFF7DE
:10499C00D1F92E4B9C420FD16C68B4F90C309AB201
:1049AC0015072CD4D00611D40922326043F04003F1
:1049BC00A3814FF0FF3070BD254B9C4201D1AC68F8
:1049CC00EBE7244B9C4208BFEC68E6E7510712D595
:1049DC00616B41B104F14403994202D03046FFF7B8
:1049EC00E1FA00236363A38923F02403A38100234A
:1049FC00636023692360A38943F00803A3812369BF
:104A0C004BB9A38903F42073B3F5007F03D021467F
:104A1C003046FFF761FAA28912F001030CD0002393
:104A2C00A36063695B42A361236953B9B4F90C3089
:104A3C0013F08000BAD170BD920758BF6369A360B0
:104A4C00F2E70020F7E700BF0C000020D04E000872
:104A5C00F04E0008B04E00085822024B4FF0FF30C9
:104A6C001A607047E40300205822024B4FF0FF30CD
:104A7C001A607047E40300205822024B4FF0FF30BD
:104A8C001A607047E40300205822024B00201A6081
:104A9C00704700BFE40300205822024B4FF0FF3058
:104AAC001A607047E40300205822024B4FF0FF308D
:104ABC001A607047E40300205822024B4FF0FF307D
:104ACC001A607047E4030020044A05491368002B60
:104ADC0008BF0B461844106018467047E0030020CE
:104AEC00E8030020FEE700BFF8B500BFF8BC08BC27
:104AFC009E467047F8B500BFF8BC08BC9E46704790
:104B100002030405060708090A0B0C0D0E0F1010FE
:104B20007372632F48414C2F6164632E6300000051
:104B30007372632F48414C2F74696D2E630000001F
:104B40007372632F48414C2F75736172742E63002A
:104B50007372632F48414C2F7370692E63000000FD
:104B6000000000000000000001020304060708091D
:104B700000000000010203045345545F54494D45B1
:104B80005F434D443A2025642C2025640A00000030
:104B90005374617475733A004C4F2B3A2000000037
:104BA0004C4F2D3A200000004F4B20200000000009
:104BB0004641494C000000000000000000000000D9
:104BC000183C3C181800180000363614000000008D
:104BD00036367F367F3636000C3E031E301F0C0003
:104BE0001C361C6E3B336E00006333180C6663008A
:104BF0000606030000000000180C0606060C18004C
:104C0000060C1818180C060000663CFF3C660000F5
:104C1000000C0C3F0C0C000000000000000C0C0607
:104C20000000003F0000000000000000000C0C002D
:104C30006030180C060301003E63737B6F673E0013
:104C40000C0E0C0C0C0C3F001E33301C06333F00C6
:104C50001E33301C30331E00383C36337F30780032
:104C60003F031F3030331E001C06031F33331E006A
:104C70003F3330180C0C0C001E33331E33331E0030
:104C80001E33333E30180E00000C0C00000C0C00DC
:104C9000000C0C00000C0C06180C0603060C180087
:104CA00000003F00003F0000060C1830180C060002
:104CB0001E3330180C000C003E637B7B7B031E0010
:104CC0000C1E33333F3333003F66663E66663F005B
:104CD0003C66030303663C001F36666666361F00AB
:104CE0007F46161E16467F007F46161E16060F00CC
:104CF0003C66030373667C003333333F3333330046
:104D00001E0C0C0C0C0C1E007830303033331E009F
:104D10006766361E366667000F06060646667F0023
:104D200063777F7F6B63630063676F7B736363008D
:104D30001C36636363361C003F66663E06060F0042
:104D40001E3333333B1E38003F66663E36666700CF
:104D50001E33070E38331E003F2D0C0C0C0C1E00AA
:104D60003333333333333F0033333333331E0C00A9
:104D70006363636B7F7763006363361C1C36630079
:104D80003333331E0C0C1E007F6331184C667F00DA
:104D90001E06060606061E0003060C1830604000BC
:104DA0001E18181818181E00081C36630000000092
:104DB000000000000000003F0C0C18000000000084
:104DC00000001E303E336E000706063E66663B005E
:104DD00000001E3303331E003830303E33336E0084
:104DE00000001E333F031E001C36060F06060F0090
:104DF00000006E33333E301F0706366E666667006E
:104E00000C000E0C0C0C1E00300030303033331E02
:104E1000070666361E3667000E0C0C0C0C0C1E00C6
:104E20000000337F7F6B630000001F333333330098
:104E300000001E3333331E0000003B66663E060F43
:104E400000006E33333E307800003B6E66060F0084
:104E500000003E031E301F00080C3E0C0C2C1800F6
:104E60000000333333336E0000003333331E0C0045
:104E70000000636B7F7F3600000063361C366300E2
:104E800000003333333E301F00003F190C263F0033
:104E9000380C0C070C0C38000C0C0C0C0C0C0C0C0B
:104EA000070C0C380C0C07006E3B000000000000E3
:104EB00000000000000000000000000000000000F2
:104EC00000000000000000000000000000000000E2
:104ED00000000000000000000000000000000000D2
:104EE00000000000000000000000000000000000C2
:104EF00000000000000000000000000000000000B2
:104F000000000000000000000000000000000000A1
:104F100010000020232D302B2000686C4C006566AB
:104F200067454647003031323334353637383941FA
:104F30004243444546003031323334353637383910
:084F4000616263646566000014
:104F480031010008BD38000881390008453A0008D9
:044F5800C93A00084A
:044F5C000D0100083B
:104F600000A24A0480000000E803000010000020B6
:104F700000000000D04E0008F04E0008B04E0008BF
:104F80000000000000000000000000000000000021
:104F90000000000000000000000000000000000011
:104FA0000000000000000000000000000000000001
:104FB00000000000000000000000000000000000F1
:104FC00000000000000000000000000000000000E1
:0400000508003815A2
:00000001FF
