:020000040800F2
:1000000000500020D93D0008890700088D0700082E
:1000100091070008950700089907000800000000F4
:100020000000000000000000000000009D07000824
:10003000A107000800000000A5070008A9070008A4
:10004000213E0008213E0008213E0008213E000814
:10005000213E0008213E0008213E0008213E000804
:10006000213E0008213E0008213E0008B907000893
:10007000213E0008C5070008D1070008DD07000879
:10008000213E0008213E0008213E0008213E0008D4
:10009000213E0008213E0008213E0008213E0008C4
:1000A000213E0008E9070008213E0008213E000823
:1000B000F5070008213E0008213E0008213E000807
:1000C000213E0008213E0008213E0008213E000894
:1000D000213E000801080008213E0008213E0008DA
:1000E000213E0008213E0008213E000800000000DB
:1000F0000000000000000000000000000000000000
:0C01000000000000000000005FF808F1A3
:10010C0010B5054C237833B9044B13B10448AFF345
:10011C0000800123237010BD6C0000200000000043
:10012C00DC5300080C4B43B10C4810B50C49AFF331
:10013C0000800C48036823B910BD0A48036833B922
:10014C007047094B002BF7D0BDE810401847064B01
:10015C00002BF5D0184700BF00000000DC5300084E
:10016C00700000206C0000200000000030B5002260
:10017C0001214FF46024114B114D85B018469A6043
:10018C005A615A601D60DC61D960196101F0F0F8A8
:10019C0078B90123002201A9084801930293039224
:1001AC0000F06CFF18B14F21064800F0DFFB05B0E2
:1001BC0030BD4521034800F0D9FBEAE78800002058
:1001CC0000240140045400081E4B02689A4200D0DF
:1001DC007047F0B50226032503F56C439A6987B086
:1001EC0042F400729A619B6902A903F400730193B3
:1001FC00044615480296019B03954FF4807702F054
:10020C003DFA4FF4806600234FF0800E20214FF40E
:10021C0080520E4D0E486B6028602846AB60C5F8C6
:10022C000CE02F616E61A961EA6102F0ADF818B9BA
:10023C0025626C6207B0F0BD7321064800F096FB96
:10024C00F6E700BF0024014000080140B800002080
:10025C0008000240045400080022164B10B55C69DB
:10026C0082B044F001045C615B69114603F0010348
:10027C0001930B20019B01F041FC0B2001F074FC5D
:10028C0000220D20114601F039FC0D2001F06CFC10
:10029C0000220E20114601F031FC0E2001F064FC0E
:1002AC0000220F20114601F029FC0F2001F05CFC0C
:1002BC0002B010BD001002402F4B2DE9F0414FF45D
:1002CC0000579A690126022542F010029A619A6938
:1002DC0088B002F010020092009A9A69DFF8A080B0
:1002EC0042F020029A619A69244C02F02002019299
:1002FC00019A9969404641F004019961996900227B
:10030C0001F0040102910299996941F00801996187
:10031C009B69394603F008030393039B02F0B6FA7A
:10032C002046002242F6044102F0B0FA404604A9ED
:10033C0004970596079502F0A1F940F604420323B1
:10034C0004A9204604920793059602F097F904A994
:10035C00204604970596079502F090F94FF4404219
:10036C00002304A9204606950492059302F086F911
:10037C0008B0BDE8F08100BF00100240000C014045
:10038C000010014002234FF4807200B585B069461D
:10039C0004488DE80C00039302F070F905B05DF889
:1003AC0004FB00BF0008014010B50368174A82B077
:1003BC00934218D0B3F1804F01D002B010BD00228F
:1003CC0003F50433DC69114644F00104DC61DB699C
:1003DC001C2003F001030193019B01F08FFB1C20F7
:1003EC0001F0C2FBE9E70022094B11469C69192078
:1003FC0044F400649C619B6903F400630093009BCC
:10040C0001F07CFB192001F0AFFBD6E7002C01407A
:10041C0000100240002330B53A4C3B4A95B0606066
:10042C002046E1602260A36023616361A36101F057
:10043C00BDFA00283BD14FF4805314A941F8483D34
:10044C00304801F003F9002856D12E4801F0CAFAC1
:10045C0000284BD1002369462A480093019301F0F0
:10046C00E5FE00283CD1002350251A4606A9254854
:10047C000793089309930A930B930C93069501F039
:10048C00FBFA38BB00234FF400520DA91D480D9305
:10049C000E930F93109311931393129201F09CFEF1
:1004AC0058B92268184B9A4210D015B030BD40F2A2
:1004BC000111164800F05AFABDE740F22B1113480F
:1004CC0000F054FA2268104B9A42EED1FFF75AFF13
:1004DC0015B030BD40F21F110C4800F047FAD1E7BF
:1004EC0040F21311094800F041FABCE74FF4867151
:1004FC00064800F03BFAADE740F20711034800F064
:10050C0035FAA2E7FC000020002C0140145400082E
:10051C0010B500224FF08044174B86B05860184637
:10052C00D9601C609A601A619A6101F03FFAE8B9CF
:10053C004FF4805306A941F8103D0F4801F086F89E
:10054C0070B9002369460C480093019301F06EFECC
:10055C0020B14FF4A671094800F008FA06B010BD9E
:10056C0040F24511054800F001FAEAE740F23F116C
:10057C00024800F0FBF9DBE73C01002014540008B2
:10058C0038B500224FF4E1350C210A4B0A4C1846C1
:10059C0083E8300059619A60DA601A619A61DA6115
:1005AC0001F0DAFB00B938BD4521BDE838400348FD
:1005BC0000F0DCB90402002000380140245400088B
:1005CC00314B02689A4200D07047F0B504464FF4A4
:1005DC0000700226032503F558439A6987B042F44C
:1005EC0080429A619B69029003F4804300F1804041
:1005FC0002A9019300F58330019B03960595002514
:10060C0002F03CF84FF48063204802A90293039552
:10061C00049502F033F880231D4E1E4A3046756057
:10062C00B56035617561B561F5613260F36001F0FB
:10063C00ABFEF0B9002310218027174D174A6663D3
:10064C002846746269602A60AB602B616B61AB6198
:10065C00EB61EF6001F098FE80B900222563114632
:10066C0025206C6201F04AFA252001F07DFA07B0D2
:10067C00F0BD70210A4800F079F9DBE739460848EB
:10068C0000F074F9E9E700BF0038014000080140B0
:10069C007C01002058000240C001002044000240B0
:1006AC0024540008F8B54FF4827E0022022701265C
:1006BC004FF4007518240A210C4B0D481F6183E878
:1006CC00014018465E619D61DC61D9629A60DA6016
:1006DC001A625A629A6202F0D7F900B9F8BD472142
:1006EC00BDE8F840034800F041B900BF8802002083
:1006FC0000300140345400081B4B02689A4200D071
:10070C007047F0B502260325A02703F560439A69CC
:10071C0087B042F480529A619B6902A903F480531A
:10072C00019304461148019B0396059502971026E8
:10073C0001F0A4FF002380220D4D0E49284685E8C8
:10074C004200EA60AB602B616B61AB61EB6101F065
:10075C001BFE18B9A5646C6207B0F0BD6D2106488C
:10076C0000F004F9F6E700BF00300140000801403A
:10077C00440200203000024034540008704700BF8F
:10078C00FEE700BFFEE700BFFEE700BFFEE700BFCD
:10079C00704700BF704700BF704700BF08B500F03E
:1007AC002FF9BDE8084001F011BA00BF014801F073
:1007BC00CFBE00BFB8000020014801F0C9BE00BF89
:1007CC0044020020014801F0C3BE00BFC00100205C
:1007DC00014801F0BDBE00BF7C010020014800F0C3
:1007EC00FDBF00BFFC000020014800F0F7BF00BFB8
:1007FC003C010020014801F01FBC00BF0402002096
:10080C00224B00B59A6983B042F001029A619B6950
:10081C00032003F001030193019B01F05DF9002219
:10082C006FF00B00114601F069F900226FF00A001D
:10083C00114601F063F900226FF00900114601F036
:10084C005DF900226FF00400114601F057F9002207
:10085C006FF00300114601F051F900226FF0010016
:10086C00114601F04BF900224FF0FF30114601F018
:10087C0045F9074B5A6822F0E0625A605A6842F018
:10088C0000725A6003B05DF804FB00BF0010024018
:10089C000000014030B44FF41F054FF000640E4BC4
:1008AC000E4A19680E4841F00101196059680A4056
:1008BC005A601A6822F0847222F480321A601A6824
:1008CC0022F480221A605A6822F4FE025A609D605B
:1008DC00846030BC704700BF001002400000FFF87D
:1008EC0000ED00E030B501224FF4803300250224E6
:1008FC004FF4E01195B00AA80A920E920B93129342
:10090C000C951194139100F089F800B1FEE70346A1
:10091C000F254FF48062214605A80694079309938E
:10092C000595089200F09EFA00B1FEE74FF40043E3
:10093C0001A80194039301F0A3FC044600B1FEE767
:10094C0000F036FB084BA3FB0030800901F018F9CE
:10095C00042001F02DF9224621464FF0FF3001F022
:10096C00CDF815B030BD00BFD34D6210FEE700BF0F
:10097C00101E1BDD30B44FF060440D1801E08D42A9
:10098C0013D0D4F8803E0131DA07F8D5D4F8003E04
:10099C00DB07F4D523681BB900BF2368002BFBD001
:1009AC0011F8013C8D422370EBD130BC704700BF75
:1009BC0010B50446074A084B1068A3FB00308009A9
:1009CC0001F0DEF8214600224FF0FF3001F096F8DE
:1009DC00002010BD00000020D34D6210074A08B55E
:1009EC001368032043F01003136001F075F8002026
:1009FC00FFF7DEFFFFF704FF002008BD00200240D8
:100A0C00024A136801331360704700BFE0020020F4
:100A1C00014B1868704700BFE00200202DE9F0413F
:100A2C00036882B0DD07044630D5AD494A6802F050
:100A3C000C02042A00F0FA804A6802F00C02082A20
:100A4C0000F0F0806368B3F5803F00F07481002BF8
:100A5C0000F00481B3F5A02F00F0A981A04B1A6817
:100A6C0022F480321A601A6822F480221A60FFF78E
:100A7C00CFFF9B4D064605E0FFF7CAFF801B64289D
:100A8C0000F217812B689A03F6D523689F0728D5A7
:100A9C00934A516811F00C0F00F0A980516801F0D5
:100AAC000C01082900F09F802369002B00F0328193
:100ABC0001228C4B8A4D1A60FFF7AAFF064605E00F
:100ACC00FFF7A6FF801B022800F2F3802B68980723
:100ADC00F6D52B68626923F0F80343EAC2032B6056
:100AEC0023681A075DD45D073AD57D4BDA69D000CF
:100AFC0000F1A6800125DA6942F08052DA61DB69E7
:100B0C0003F080530093009B774B1A68D10540F19A
:100B1C00BF80E368012B00F01481002B00F0CD8026
:100B2C00052B6F4B1A6A00F04F8122F001021A62FA
:100B3C001A6A22F004021A62FFF76AFF684E8046B6
:100B4C0041F2883706E0FFF763FFA0EB0800B842DC
:100B5C0000F2AF80336A9B07F5D5002D40F0F7808B
:100B6C00E369D3B15E4D6A6802F00C02082A45D0E5
:100B7C00022B4FF000025D4B00F0EF801A60FFF784
:100B8C0047FF2C46054605E0FFF742FF401B0228B5
:100B9C0000F28F8023689B01F6D4002002B0BDE8E0
:100BAC00F081A369002B2DD00122514B4C4D1A60C2
:100BBC00FFF72EFF064604E0FFF72AFF801B0228F2
:100BCC0077D86B6A9B07F7D54A4B4B4A1B68A2FB3D
:100BDC0003235B0A019300BF019B5A1E0192002B59
:100BEC00F9D123687FE75268D6033FF55DAF3C4AE5
:100BFC001268950726D52269012A23D0012002B05C
:100C0C00BDE8F0813A4A364D1360FFF701FF064606
:100C1C0004E0FFF7FDFE801B02284AD86B6A9F0791
:100C2C00F7D4DEE74A68D0037FF50CAF2C4A126884
:100C3C0091037FF52BAF6268002A7FF427AFDDE7C5
:100C4C00002561E7264960690A6822F0F80242EA49
:100C5C00C0020A601A077FF546AFA2E703F1804392
:100C6C0003F504331A681D4622F480321A601A68A0
:100C7C0022F480221A60FFF7CBFE064604E0FFF751
:100C8C00C7FE801B642814D82B689B03F7D4FCE6A2
:100C9C001A681E4642F480721A60FFF7B9FE0746C6
:100CAC003368DA053FF535AFFFF7B2FEC01B642899
:100CBC00F6D9032002B0BDE8F08103F1804303F5BF
:100CCC0004331A6A1E4622F001021A621A6A41F2B1
:100CDC00883822F004021A62FFF79AFE074612E0E7
:100CEC00001002400000424200700040600042428E
:100CFC008004424200000020D34D6210FFF788FEB2
:100D0C00C01B4045D5D8336A9807F7D4002D3FF463
:100D1C0027AF1CE0344A354D1360FFF779FE0646C9
:100D2C0004E0FFF775FE801B0228C2D82B689907D8
:100D3C00F7D42368D5E62D4A136843F48033136047
:100D4C0095E62A4A136A43F001031362F4E6274A34
:100D5C00D36923F08053D36102E71A60FFF758FE82
:100D6C00064604E0FFF754FE801B0228A1D82B682E
:100D7C009901F7D4226AB2F5803F2DD001251B4B87
:100D8C00606A5968024321F4741119480A435A6085
:100D9C0005601C46FFF73CFE054604E0FFF738FEF5
:100DAC00401B022885D823689A01F7D5F5E603F194
:100DBC008043A3F53C331A6842F480221A601A6807
:100DCC0042F480321A6052E642F004021A621A6A45
:100DDC0042F001021A62AFE66B68A16823F400339B
:100DEC000B436B60CAE700BF000042420010024098
:100DFC006000424270B50126022586B0154B0DF1FC
:100E0C00180E0FCB0EE90F00134C8DF804608DF803
:100E1C000550636803F00C02082A0BD1C3F383421C
:100E2C007244DB0312F8100C07D40C4B03FB00F0DC
:100E3C0006B070BD0A4806B070BD6368084AC3F3BB
:100E4C004043734413F8143CB2FBF3F300FB03F080
:100E5C0006B070BDF45300080010024000093D00BC
:100E6C0000127A004E4A136803F007038B420BD230
:100E7C00136823F007030B431360136803F0070395
:100E8C00994201D00120704703682DE9F0419A077F
:100E9C0006D5444C8568626822F0F0022A436260F1
:100EAC00DF0706460C4622D542683E4B012A1B68DA
:100EBC0072D0022A6AD0990729D53A4D41F2883866
:100ECC006B6823F0030313436B60FFF7A1FD73689A
:100EDC000746012B49D0022B05D151E0FFF798FDB5
:100EEC00C01B404555D86B6813F00C0FF6D12C4A3B
:100EFC00136803F007039C420CD2136823F007031A
:100F0C0023431360136803F007039C4202D00120B3
:100F1C00BDE8F08133685A0706D52249F0684A6863
:100F2C0022F4E06202434A601B0707D51D4A31696F
:100F3C00536823F4605343EAC1035360FFF75AFF2D
:100F4C00184B19495B68194AC3F30313CB5C20FA9D
:100F5C0003F300201360FFF72BFD0020BDE8F081A8
:100F6C00FFF756FDC01B404513D86B6803F00C030C
:100F7C00042BF5D1BBE7FFF74BFDC01B404508D850
:100F8C006B6803F00C03082BF5D1B0E7980194D4EF
:100F9C00BDE70320BDE8F0819D038ED4B7E700BF09
:100FAC0000200240001002404454000800000020C1
:100FBC00014B1868704700BF00000020044B054926
:100FCC005B68054AC3F30223CB5C1068D8407047BA
:100FDC00001002405454000800000020044B054946
:100FEC005B68054AC3F3C223CB5C1068D8407047DA
:100FFC00001002405454000800000020436A9A6A12
:10100C0012F0500F1ED19A6A196842F4007210B592
:10101C009A628A6802F46022B2F5602F03D01846F7
:10102C0001F06AFE10BDDA68002AF8D19A6A22F43F
:10103C0080729A629A6AD204F1D49A6A42F00102DE
:10104C009A62ECE71B6A1B6B184700BF704700BF26
:10105C0008B5406AFFF7FAFF08BD00BF704700BF34
:10106C0008B5436A9A6A184642F040029A62DA6AF4
:10107C0042F00402DA62FFF7F1FF08BD02460020DD
:10108C0070B492F8243083B0012B019054D001201D
:10109C004B681F26062B82F82400146824D803EB17
:1010AC008303053B656B08689E4025EA060500FA3C
:1010BC0003F32B436363092826D9072600EB40036F
:1010CC008D681E3BE1689E409D4021EA06032B4340
:1010DC00E360A0F11003012B25D90020002382F836
:1010EC00243003B070BC70470C2B03EB830327D860
:1010FC000868233B256B9E4025EA060500FA03F39E
:10110C002B4309282363D8D80725896800EB4006B0
:10111C002369B540B14023EA05030B432361A0F1D9
:10112C001003012BD9D81A4B9C4214D0936A01207E
:10113C0043F020039362D1E7022003B070BC7047E8
:10114C00413BE56A08689E4025EA060500FA03F370
:10115C002B43E362AFE7A3681B02BED4A36810283D
:10116C0043F40003A360B8D10A4B0B491B68A1FBE5
:10117C0003139B0C03EB83035B000193019B002B7C
:10118C00ABD0019B013B0193019B002BF9D1A4E750
:10119C00002401400000002083DE1B43002370B5B7
:1011AC00026882B001939368DB0721D4184B194C69
:1011BC001B689168A4FB034341F001019B0C9160F7
:1011CC000193019B2BB1019B013B0193019B002BD4
:1011DC00F9D10546FFF71CFC064604E0FFF718FCA6
:1011EC00801B022807D82B689C6814F00104F5D0EA
:1011FC00002002B070BD0120AB6A85F8244043F09A
:10120C001003AB62EB6A0343EB6202B070BD00BF2C
:10121C000000002083DE1B43F8B53F4D0468AC4250
:10122C0060D005F58065AC425CD090F82440012C70
:10123C0002D102252846F8BD012380F82430174638
:10124C000E460446FFF7AAFF0546002852D1A36AB2
:10125C00216823F47063314A23F0010343F4807353
:10126C009142A3624BD0A36A23F48013A3624B6810
:10127C005A0505D5A36A23F4405343F48053A36263
:10128C00A36A6FF0020213F4805318BFE36A206A5A
:10129C0018BF23F00603E3620023DFF888E084F82C
:1012AC002430C0F828E01E4BDFF87CE0C362C0F8A5
:1012BC0030E00A603B468F68324647F480778F6097
:1012CC004C3101F09BF822682846936803F46023A4
:1012DC00B3F5602F93680CBF43F4A00343F4801361
:1012EC009360F8BD0C4B5B6813F4702F9DD00125F7
:1012FC002846F8BD0023284684F82430F8BD064B58
:10130C005A6812F4702FAED0A26A42F48012A26214
:10131C005B685B05B4D5ADE70024014000280140B3
:10132C005D100008091000086D10000838B503683E
:10133C009A68D20701D4002038BD9A68044622F07E
:10134C0001029A60FFF764FB054623689B68DB0784
:10135C00F1D5FFF75DFB401B0228F6D90120A36AEB
:10136C0043F01003A362E36A0343E36238BD00BF9A
:10137C00002863D0F8B5836A0446002B45D020467C
:10138C00FFF7D4FFA36A13F0100338D1002836D12D
:10139C00A26A616822F48852E669A56822F002020A
:1013AC00E76842F002023143B5F5807FA26241EA60
:1013BC00470130D0012D4CD06269012A4FD006462E
:1013CC0022683B4B556825F46945556095682B4060
:1013DC000B439360D36A374D23F470033343D362CA
:1013EC0093681D40A9422BD00120A36A23F012035D
:1013FC0043F01003A362E36A0343E362F8BDA36AFC
:10140C00012043F01003A362F8BDC36280F82430BE
:10141C00FEF7DAFEB3E76369012B45D02268244B53
:10142C00556825F4694545F48075556095682B40E1
:10143C000B4393602369013B1E05CBE701207047EA
:10144C000023E362A36A23F0030343F00103A362C6
:10145C00F8BD6369012B08BF4FF48073DED1E7B18F
:10146C00A26A42F02002A262E26A42F00102E26247
:10147C0022680F4E5768B5F5807F27F4694743EA19
:10148C0007035360936806EA030646EA0106966072
:10149C00D0D0012DCED000269CE7A269013A43EAB8
:1014AC00423343F40063E3E72B46002FD8D1F4E733
:1014BC00FDF7E1FFFE0E1FFF90F82420012A01D159
:1014CC0002207047012310B580F824300446FFF742
:1014DC002DFF18B1002384F8243010BD2268206A37
:1014EC00936823F48073936000F0CCFFA36A38B93F
:1014FC0023F4885323F0010343F00103A362E9E7CB
:10150C0043F04003A362E5E7026AF0B422F0010263
:10151C008E680262036A114D476882690C6823F079
:10152C00020322F07302A84243EA060342EA0402D1
:10153C0006D0496847608261F0BC41630362704722
:10154C00CE684C698D6923F0080327F44077334348
:10155C002C4323F004032743EBE700BF002C01408E
:10156C00026AF0B422F480728E680262036A124D31
:10157C004768C2690C6823F4007322F07302A84216
:10158C0043EA062342EA040206D049684760C26176
:10159C00F0BCC16303627047CE684C698D6923F45B
:1015AC00006327F4405743EA06232C4323F480635B
:1015BC0047EA0417E9E700BF002C0140026AF0B4C7
:1015CC0022F480528F680262036A0D4E4568C2692C
:1015DC000C6823F4005322F4E642B04243EA07338A
:1015EC0042EA042206D049684560C261F0BC01643D
:1015FC00036270474C6925F4804545EA8415F2E78F
:10160C00002C014003680020DA6842F00102DA6025
:10161C001A6842F001021A60704700BF41F21111C2
:10162C000368DA6822F00102DA601A6A0A4208D109
:10163C0040F24442196A114203D11A6822F00102A5
:10164C001A600020704700BF704700BF90F83C3014
:10165C00012B40D00222F0B40125036880F83D2014
:10166C009A680C6822F47F4222F07702402C80F8B2
:10167C003C509A6073D018D9702C60D02DD9B4F529
:10168C00805F57D0B4F5005F1CD18A684D68CC6878
:10169C0099682A4342EA042221F47F410A439A6062
:1016AC009A6842F480429A600CE0102C32D038D9FF
:1016BC00202C6CD0302C05D19A6822F0700242F0AC
:1016CC0037029A600023F0BC012280F83C3080F88D
:1016DC003D201846704702207047502C5ED0602C7D
:1016EC00F0D11C6A4D6824F01004CE681C62996914
:1016FC001A6A21F4704122F0A00242EA051241EA72
:10170C00063199611A629A6822F0700242F06702FF
:10171C009A60D7E79A6822F0700242F017029A603A
:10172C00D0E7002CCED19A6822F0700242F007026A
:10173C009A60C7E79A6822F007029A60C2E78A6843
:10174C004D68CC6899682A4342EA042221F47F410F
:10175C000A439A609A6842F077029A60B2E71D6A6F
:10176C001E6A4C6826F00106CF681E629A6925F045
:10177C000A0122F0F00242EA071221439A6119622F
:10178C009A6822F0700242F047029A609AE79A68CF
:10179C0022F0700242F027029A6093E71D6A1E6ADB
:1017AC004C6826F00106CF681E629A6925F00A0182
:1017BC0022F0F00242EA071221439A6119629A68F8
:1017CC0022F0700242F057029A607BE7704700BF2C
:1017DC00704700BF704700BF704700BF036810B56B
:1017EC001A690446910702D5DA68920762D41A691D
:1017FC00500702D5DA68510749D41A69120702D585
:10180C00DA68100731D41A69D20602D5DA68D00624
:10181C0018D41A69D10702D5DA68D2076BD41A69C1
:10182C00100602D5DA6811066DD41A69520602D573
:10183C00DA68500657D41A69910602D5DA6892060E
:10184C0049D410BD6FF0100108221961DB692046E4
:10185C0013F4407F227761D1FFF7B8FF2046FFF7E2
:10186C00B9FF002223682277D3E76FF00801042226
:10187C001961DB6920469907227755D1FFF7A6FF3E
:10188C002046FFF7A7FF002223682277BBE76FF003
:10189C000401022219619B69204613F4407F2277D0
:1018AC003FD1FFF793FF2046FFF794FF00222368F8
:1018BC002277A2E76FF00201012219619B6902777E
:1018CC009B0728D1FFF782FF2046FFF783FF0022FA
:1018DC00236822778BE76FF020022046BDE810408A
:1018EC001A6100F0C9BC6FF0400220461A61FFF784
:1018FC0073FF23689FE76FF0010220461A6101F025
:10190C0089F923688BE76FF0800220461A6100F09A
:10191C00B5FC236889E7FFF75BFFD8E7FFF758FFB3
:10192C009FE7FFF755FFC1E7FFF752FFABE700BF9B
:10193C001D4A0368904221D0B0F1804F30B414D0CE
:10194C00A2F59432904210D002F5806290420CD0F5
:10195C004D6923F080032B438C680A6803600123D4
:10196C00C462826230BC436170474A6823F07003E2
:10197C001343CA6823F440731343E9E74A6823F01E
:10198C0070031343CA6823F4407313434A6923F06A
:10199C008003134303608B68C3620B6883620B691B
:1019AC000363012343617047002C0140B8B190F8E8
:1019BC003D3010B503F0FF0204465BB102232068F2
:1019CC0084F83D30211DFFF7B3FF0123002084F87C
:1019DC003D3010BD80F83C20FEF7E6FCEEE7012020
:1019EC00704700BFB8B190F83D3010B503F0FF025E
:1019FC0004465BB10223206884F83D30211DFFF7BB
:101A0C0097FF0123002084F83D3010BD80F83C2066
:101A1C00FFF71AFEEEE70120704700BF026AF0B430
:101A2C0022F010028E680262036A124D47688269C6
:101A3C000C6823F0200322F4E642A84243EA061382
:101A4C0042EA042206D0496847608261F0BC816397
:101A5C0003627047CE684C698D6923F0800327F4CC
:101A6C00406743EA06132C4323F0400347EA8407FC
:101A7C00E9E700BF002C014090F83C30012B1CD052
:101A8C0010B502230446012084F83D3084F83C0054
:101A9C000C2A0BD8DFE802F0170A0A0A070A0A0A0E
:101AAC001B0A0A0A13002068FFF7B8FF0123002065
:101ABC0084F83D3084F83C0010BD0220704720684B
:101ACC00FFF77CFDF2E72068FFF71EFDEEE72068CC
:101ADC00FFF746FDEAE700BF4FF6FF01064A00029A
:101AEC00D36800F4E0600B4043F0BF6343F4003371
:101AFC000343D360704700BF00ED00E0184B70B497
:101B0C00DC68C4F30224C4F10706042E04F10403B8
:101B1C0028BF0426062B17D90125033CA540013DFF
:101B2C002A400123B340013B1940A140002841EA5F
:101B3C0002010CDB090100F16040C9B200F5614003
:101B4C0080F8001370BC704700221446E9E7054B7F
:101B5C0000F00F000901C9B20344197670BC70473C
:101B6C0000ED00E0FCEC00E0012300F01F01034A53
:101B7C0040098B4042F82030704700BF00E100E084
:101B8C000138B0F1807F0DD230B4F025002207214E
:101B9C00054B064C586084F82350104630BC9A60B4
:101BAC00196070470120704710E000E000ED00E084
:101BBC00044A042813680CBF43F0040323F0040305
:101BCC001360704710E000E0704700BF08B5FFF7E6
:101BDC00FBFF08BD2DE9F04782460468C168226905
:101BEC00836822F440520A432261E2680069DAF801
:101BFC00141022F4B052034322F00C020B43134393
:101C0C00E3606369DAF81810514A23F440730B430C
:101C1C009442636159D0FFF7D1F9DAF8043000EB44
:101C2C00800000EB80009B00B0FBF3F3494F4FF0BA
:101C3C006408A7FB03235B091D01FFF7BFF9DAF862
:101C4C00042000EB8000930000EB8000B0FBF3F667
:101C5C00FFF7B4F9DAF8042000EB8000930000EBF6
:101C6C008000B0FBF3F3A7FB03235B0908FB1363B2
:101C7C001B013233A7FB03235B0903F0F006FFF7CC
:101C8C009DF9DAF8042000EB800000EB8000930053
:101C9C00B0FBF3F9FFF792F9DAF8043000EB8000AF
:101CAC0000EB80009B00B0FBF3F3A7FB03235B0965
:101CBC0008FB13931B013233A7FB0323C3F343131A
:101CCC0033432B44A360BDE8F087FFF787F9DAF8BC
:101CDC00043000EB800000EB80009B00B0FBF3F3C2
:101CEC001C4F4FF06408A7FB03235B091D01FFF792
:101CFC0075F9DAF8042000EB8000930000EB80000B
:101D0C00B0FBF3F6FFF76AF9DAF8042000EB800079
:101D1C00930000EB8000B0FBF3F3A7FB03235B09FC
:101D2C0008FB13631B013233A7FB03235B0903F08E
:101D3C00F006FFF753F9DAF8042000EB800093006B
:101D4C0000EB8000B0FBF3F9FFF748F9A4E700BF04
:101D5C00003801401F85EB5160B338B590F839302D
:101D6C00044603F0FF0203B32423226884F83930BD
:101D7C00D368204623F40053D360FFF72BFF0025D4
:101D8C002021236828461A6922F490421A615A6964
:101D9C0022F02A025A61DA6842F40052DA60E563F2
:101DAC0084F8391084F83A1038BD80F83820FEF7E2
:101DBC0007FCD9E701207047F8B590F83940202C82
:101DCC0001D00220F8BD51B34AB390F83840012C31
:101DDC00F7D00446002613464FF0210E0127006B66
:101DEC00E284104AA384E66384F83870216284F894
:101DFC0039E00D4F0D4D826222684663C762056360
:101E0C00043200F0FBFA6FF04002236830461A608F
:101E1C005A6984F8386042F080025A61F8BD01209A
:101E2C00F8BD00BFD11E0008011F0008E11F00080B
:101E3C00F0B590F83A4083B0202C02D0022003B0C9
:101E4C00F0BD002935D0002A33D090F83830012B62
:101E5C00F4D004460025134601270A462226406B7F
:101E6C001549A262A385E56384F8387084F83A605A
:101E7C00124F8162124E21684563C76206630431BA
:101E8C0000F0BCFA236801951A68284601925A683A
:101E9C0084F838500192019ADA6842F48072DA6060
:101EAC005A6942F001025A615A6942F040025A6181
:101EBC00C5E70120C3E700BF0D1F0008D11F0008B4
:101ECC00E11F000808B50368406A1B6813F0200383
:101EDC000AD10268C384536923F080035361D36829
:101EEC0043F04003D36008BD00F08CFE08BD00BF7A
:101EFC00704700BF08B5406AFFF7FAFF08BD00BF86
:101F0C0008B50368406A1B6813F0200310D1202128
:101F1C000268C385D36823F48073D360536923F0BC
:101F2C0001035361536923F04003536180F83A1065
:101F3C0000F060FE08BD00BF8368B3F5805F2CD055
:101F4C00036973B10368826A5B68511C03F07F03F9
:101F5C0081621370C38D013B9BB2C38543B10020DA
:101F6C0070470268836A5268591C81621A70F1E7E3
:101F7C0010B520240268D16821F02001D160D1680D
:101F8C0021F48071D160516921F00101516180F817
:101F9C003A4000F02FFE002010BD0269836A3AB966
:101FAC0002685268C2F3080223F8022B8362D1E75D
:101FBC0002685268D2B223F8012B8362CAE700BFD1
:101FCC00704700BF08B5406AFFF7FAFF08BD00BFB5
:101FDC00704700BF08B5436A1A68506993F8391006
:101FEC0021291CD0506993F83A10222907D0DA6BBA
:101FFC00184642F01002DA63FFF7EAFF08BD41060B
:10200C00F5D500212020D985D16821F49071D160BB
:10201C00516921F00101516183F83A00E7E70006AC
:10202C00E0D500212020D984D16821F0C001D160F5
:10203C0083F83900D6E700BF036870B51A68044608
:10204C001607DD6859694AD011F0010153D0D60743
:10205C0005D5E80503D5E06B40F00100E0635607B9
:10206C007BD5002900F08580E16B900741F00201DF
:10207C00E16377D5E16B41F00401E163110773D49F
:10208C00E16B00292AD0910605D5AA0603D594F850
:10209C003A20222A7DD05D69E16B0E0702D415F03F
:1020AC0040057BD02021DA6822F49072DA605A69FC
:1020BC0022F001025A6184F83A105A6955065FD52C
:1020CC005A69616B22F040025A61002958D03C4B8E
:1020DC0008464B6300F0F0F9002855D170BD960608
:1020EC000CD5A9060AD590F83A30222BF6D1BDE8CA
:1020FC007040FFF721BF15F4907FA8D110060ED4C5
:10210C005606EBD56D06E9D52021DA68204622F07B
:10211C004002DA6084F8391000F074FD70BD2906B5
:10212C00EED594F83920212AD8D1A268B2F5805F77
:10213C00226A38D0511C216212785A60E28C013A22
:10214C0092B2E284002AC9D1DA6822F08002DA6005
:10215C00DA6842F04002DA6070BD96070BD50029B0
:10216C0088D18DE711078BD5E16B41F00801E16354
:10217C0086E7900784D4100782D5002980D0F3E736
:10218C002046FFF725FF70BD606BBDE87040436BC8
:10219C0018472046FFF7D0FE23687CE72046FFF760
:1021AC0017FFE56370BD11882069C1F30801596000
:1021BC0010B902322262C1E701322262BEE700BFCF
:1021CC00D1210008002208B5436ADA851846DA8462
:1021DC00FFF7FEFE08BD00BF90F83C30012B22D06B
:1021EC00024610B40024CB68886823F44073034380
:1021FC00486823F480630343086823F400630343B3
:10220C00086923F480530343486923F400530343C0
:10221C00886923F44043116803434B64204682F8D9
:10222C003C4010BC70470220704700BF90F83C3017
:10223C00012B1FD002460220F0B5002501261368A1
:10224C0082F83D005C68D1F800E024F070045C601A
:10225C0058684F6840EA0E0058609C68284624F085
:10226C0080049C6099683943996082F83D6082F8DB
:10227C003C50F0BD02207047704700BF704700BF54
:10228C002DE9F0410446006882B0C30727D53B4BCB
:10229C00DA69D7003BD53A4B00251A68D60544D5E8
:1022AC00364A136A13F440730FD0616801F440701E
:1022BC0083420BD001270026136A324923F4407065
:1022CC000F600E60D907106246D461682B4A136AFE
:1022DC0023F440730B431362002D38D1206883071D
:1022EC000DD410F0100007D00020244AE168536888
:1022FC0023F480030B43536002B0BDE8F0811F4A06
:10230C00A168536823F440430B435360E9E7DA694F
:10231C00012542F08052DA61DB6903F080530193AE
:10232C00019B174B1A68D605BAD41A681E4642F49C
:10233C0080721A60FEF76CFB07463368D805AFD481
:10234C00FEF766FBC01B6428F7D90320D4E7D369DA
:10235C0023F08053D361C1E71646FEF759FB41F2D7
:10236C008837804605E0FEF753FBA0EB0800B84227
:10237C00EBD8336A9A07F6D5A7E700BF00100240E6
:10238C00007000404004424200282ED00346F0B4B6
:10239C00002401268768426805681549C0683A43DD
:1023AC00144F294402431869A7FB01715F6902436A
:1023BC003A439F6928683A43DF6920F47F503A43D7
:1023CC0020F030000C4F090902438900DF632046DE
:1023DC0019642A609C62DC621C635C639C6383F8F6
:1023EC00204083F82160F0BC70470120704700BF8B
:1023FC00F8FFFDBFCDCCCCCC00000240F0B590F87E
:10240C002040012C0CD0012590F8214080F8205060
:10241C00AC4208D00022022380F820201846F0BDE0
:10242C0002231846F0BD00264FF0020C05688663A7
:10243C002E68076CD0F83CE0BC4026F001064768DB
:10244C0080F821C02E60CEF804406B60C36A102F58
:10245C000BBFAA60A960E960EA604BB12B6843F03E
:10246C000E032B602A68002342F001022A60D5E794
:10247C002B6823F004032B602B6843F00A032B60BA
:10248C00F0E700BF034670B4012500240268016C1C
:10249C001068DE6B20F00E001060106805FA01F178
:1024AC0020F0010010607160204683F8215083F801
:1024BC00204070BC704700BF38B590F82130022B1B
:1024CC0004D0042201248263204638BD03681D49D0
:1024DC001A688B4222F00E021A601A6822F001026E
:1024EC001A6021D0184A93421CD0143293421FD048
:1024FC00143293421FD0143293421FD014329342A1
:10250C000CBF4FF480134FF08073012100240F4D4A
:10251C00426B6B6080F8211080F8204032B19047FC
:10252C00204638BD1023F0E70123EEE71446CBE735
:10253C004FF48073E9E74FF48053E6E74FF48033B0
:10254C00E3E700BF080002401C000240000002400C
:10255C000422F0B4C66B016C346803688A402242D2
:10256C001D681FD06F071DD51A68920603D41A6810
:10257C0022F004021A603F4A93425DD01432934217
:10258C0062D01432934269D0143293426CD014321C
:10259C0093425BD0143293420CBF4FF480034FF044
:1025AC0080634AE002228A40224222D0AF0720D523
:1025BC001A68910606D401211A6822F00A021A60E0
:1025CC0080F821102B4A93422CD01432934243D0E2
:1025DC001432934245D01432934248D01432934271
:1025EC0037D0143293420CBF4FF400134FF00073EA
:1025FC0019E008228A4022421CD02A071AD501224F
:10260C0000271C68056B24F00E0402FA01F11C6013
:10261C007160826380F8212080F8207055B12B46C0
:10262C00F0BC184702230021134C826A636080F8C7
:10263C0020103AB9F0BC704704230F49C26A4B60B2
:10264C00002AF7D0F0BC10474023F6E74FF4802364
:10265C00F3E74FF40033E6E72023E4E74FF480631D
:10266C00EBE74FF40073DEE74FF48043E5E74FF4FC
:10267C000053D8E708000240000002402DE9F04F5B
:10268C004FF0000885B043466FF01F06DFF8E0E11D
:10269C00DFF8E0C1704F009005E00133102B06F11C
:1026AC00040600F08B8001220C689A401440A24270
:1026BC00F3D14D68122D00F0A58000F28E80022D12
:1026CC0000F0A78040F28380032D00F09F80112D35
:1026DC0002D1CA6802F10408FF2C72D8009A4FEAA2
:1026EC00830A914612680F2505FA0AFB22EA0B02AF
:1026FC0008FA0AFA42EA0A02C9F80020D1F804A042
:10270C001AF0805FC9D0DEF8189023F0030249F06C
:10271C000109CEF81890DEF8189002F1804209F009
:10272C000109CDF80C9002F5803203F00309DDF8B5
:10273C000CB04FEA8909D2F808B005FA09F52BEA72
:10274C00050001900098604579D0444DA84279D09D
:10275C00434D0098A8427AD0424D0098A8420CBF35
:10276C004FF0030B4FF0040B0BFA09F901981AF414
:10277C00803F40EA090595603A6803F1010314BFF4
:10278C002243A2433A607A681AF4003F14BF2243F2
:10279C00A2437A60BA681AF4801F14BF2243A24382
:1027AC00BA60FA681AF4001F14BF144322EA040436
:1027BC00102BFC6006F104067FF475AF05B0BDE884
:1027CC00F08F0098B246426800F104098BE7A5B17E
:1027DC00012D81D1D1F80C807EE7234885420CD0A5
:1027EC001BD92248854208D000F58030854204D0A0
:1027FC00DFF884904D457FF46FAF8D68BDB94FF015
:10280C00040869E7CA6802F10C0865E74FF0000894
:10281C0062E7CA6802F108085EE7DFF860904D4590
:10282C00EBD009F580394D457FF456AFE5E70098BC
:10283C00012D0CBF026142614FF008084CE74FF0CC
:10284C00000993E74FF0010B0BFA09F98EE74FF0F3
:10285C00020B0BFA09F989E700040140000C014056
:10286C000010014000140140000021100000311044
:10287C00001002400008014000002210000011105E
:10288C008368194214BF01200020704702B9090463
:10289C00016170472DE9F04180460F4616461D46F2
:1028AC00D8F8004001E06B1C0AD1A06837EA00039D
:1028BC000CBF012000208642F5D10020BDE8F0813C
:1028CC003DB1FEF7A5F8069BC01A8542E8D8D8F8AA
:1028DC0000406368D8F8042023F0E003B2F5827F4F
:1028EC00636017D0D8F82830B3F5005F08D0012208
:1028FC00002388F8512088F850300320BDE8F0817F
:10290C004DF6FF72236813402360236843F4005391
:10291C002360ECE7D8F80830B3F5004F02D0B3F5DC
:10292C00806FDFD1236823F040032360DAE700BF18
:10293C00F8B590F85030012B0DD00123044690F8D7
:10294C00510084F85030C0B2984206D002200023C7
:10295C0084F85030F8BD0220F8BD0029F7D0002AC9
:10296C00F5D000230325A06884F85150B0F5004F32
:10297C006365A286E2862163A36363642364A387F1
:10298C00E38722681FD00023A06C114F4363114EC4
:10299C00E38E114D0C329BB2C76286620563FFF762
:1029AC002DFD23681A68520603D41A6842F04002BF
:1029BC001A605A68002042F020025A605A6842F0AD
:1029CC0002025A60C3E7136843F480431360DAE7EA
:1029DC00ED290008212A0008FD290008704700BFD6
:1029EC0008B5406AFFF7FAFF08BD00BF704700BF8B
:1029FC0010B50124436A196818464A6822F003028C
:102A0C004A605A6D42F010025A6583F85140FFF744
:102A1C00EDFF10BD30B5054685B0446AFDF7F8FFF3
:102A2C002B681A6812F0200223D125686423696888
:102A3C0021F002016960009080212046FFF72AFFF7
:102A4C0038B1636D43F020036365636D43F020037D
:102A5C006365A36833B922680393D36803939368BF
:102A6C000393039B01230022E28684F85130636DAB
:102A7C0023B9204600F048F905B030BD2046FFF7D9
:102A8C00B5FF05B030BD00BF00283AD0F8B5002323
:102A9C0090F8512004468362002A2ED01A46022751
:102AAC0000210125A6686368E06833432669034367
:102ABC0060693343E66903433343206AA66984F8AB
:102ACC0051702768034306F40070034338681343BE
:102ADC00360C20F04002606A06F004060643E06AF9
:102AEC003A603B607E603861FB69084623F4006302
:102AFC00FB61616584F85150F8BDFDF7FDFDA26ADC
:102B0C00CDE70120704700BF704700BF012A08BF06
:102B1C0001600020704700BF012A08BF016000203F
:102B2C00704700BF30B585B0FDF758FFFDF7DAFEF2
:102B3C00FDF7C2FBFDF790FBFDF718FBFDF720FD41
:102B4C00FDF7B0FD102001F066F90446204D01F0B0
:102B5C00D5F8204B204A2046694602932C600392FC
:102B6C0001F0B4F8029B1BB10322694668469847F2
:102B7C001C2001F050F9044600F03CF9174B20469C
:102B8C001C6000F077F94FF4005101221448FFF754
:102B9C007DFE144A144B18200392029301F03BF96A
:102BAC00044600236A46642100F0B6F80F4D029BE0
:102BBC002C605BB10322694668469847286801215E
:102BCC0000F0F2F80A4801F00BFFFEE72046F6E7AA
:102BDC00EC020020192B0008152B0008E402002041
:102BEC00000C0140012D0008252B0008E8020020F4
:102BFC005C540008024B186808B100F08BBA70479F
:102C0C00E4020020024B186808B100F04DB970477F
:102C1C00E402002008B50E4A0368934210D0B3F1C9
:102C2C00804F00D008BD0B4B186808B100F044FC75
:102C3C00094B18680028F5D0BDE8084000F0C2B870
:102C4C00064B18680028EDD0BDE8084000F054B9D8
:102C5C00002C0140EC020020E8020020E4020020DD
:102C6C00F0B5204C83B02068002834D000F03AFC3A
:102C7C0088B34FF400411C48FFF702FE4FF480412B
:102C8C0006461948FFF7FCFD184A86461378184F7C
:102C9C00B34222D0002E14BF4FF478434FF4FC63A0
:102CAC0014250193009520682B46167005210A22E5
:102CBC0087F800E000F002FE3B782068002B14BF80
:102CCC004FF478424FF4FC62009501922B460A2295
:102CDC001E2100F0F3FD03B0F0BD3B787345D9D154
:102CEC00F9E700BFEC020020000C014004000020BA
:102CFC0005000020FFF7B4BF024B186808B100F0C4
:102D0C0025B97047E4020020024B186808B100F0A6
:102D1C0013BC7047EC020020F8B504460020E060BC
:102D2C0096681F46218046B11546201D0222294671
:102D3C00B047EA68AB682261E360002227756275D0
:102D4C00E2822046F8BD00BF018070470023F0B539
:102D5C008E6887B00546049316B30F4602AC204626
:102D6C000222B047D7F80CE0BE6894E803008DE867
:102D7C0003002B1D93E8030084E803009DE8030087
:102D8C0083E80300EB682A690493EE600592C5F8AA
:102D9C0010E01BB1032221462046984707B0F0BD36
:102DAC00DDF814E002ACE0E70123437511B9C38AE6
:102DBC00C38270470023C382704700BF0023437552
:102DCC00704700BF437D2BB1C38A02889A4202D060
:102DDC000133C38270470021037DC26883F0010375
:102DEC004375C18212B103690430184710B501F064
:102DFC00CFF900BFF8B50025064605203570757073
:102E0C0001F01AF8034670601D705D709D70DD70E6
:102E1C001D71B560282001F00FF803462C4643F8CD
:102E2C00045B00F1280243F8044B9342FBD1F060A1
:102E3C0034610A2000F0EFFF8027054640F285132D
:102E4C000122322148202B81298068801946AA71E1
:102E5C00AF80074801F0C4FD75610C2000F0DBFF6A
:102E6C00034630461B605B609C60B361F8BD00BFDD
:102E7C00A054000838B504460C2000F0CCFF0546E1
:102E8C006369998800F06CF9636925611989588820
:102E9C00FDF7C0FA61680422BDE838400148FEF72E
:102EAC00C7BF00BF0402002038B50446806818B1C3
:102EBC0000F0C4FF0023A360A26993680BB92370D0
:102ECC0038BD13680B489D682968AA88A160FEF775
:102EDC0073FFA3699A681C68013A9A60204601F056
:102EEC004FF9204600F0B4FF2846BDE8384000F00A
:102EFC00AFBF00BF040200204369C1689A79014842
:102F0C00FEF78AB988000020F8B503780446164607
:102F1C000F468BB10820A46900F07DFF05460C20FC
:102F2C002F60AE8000F077FF2146856001F021F91B
:102F3C00A3680133A360F8BDA16092B20248FEF70A
:102F4C003BFF01232370F8BD0402002070B5054639
:102F5C00C36800691968C1F30B0100F035F91E480C
:102F6C00FEF7AAFA286900F009F900B970BD2869C2
:102F7C0000F002F94400204600F05EFF00220346F8
:102F8C00611E9142064603F8012BC8BFA01E03DD4B
:102F9C00013803F8012BFBD53146286900F0F6F80F
:102FAC00286900F0E9F8420012B231462846FFF7D2
:102FBC00ABFF286900F02EF96B78013BDBB26B702C
:102FCC00002BD3D1696804220448FEF731FFBDE819
:102FDC0070400348FEF722BB88000020040200204A
:102FEC00FC00002070B5064602200C4600F024FFC1
:102FFC000346250A5C701D703046BDE870401946CA
:10300C000222FFF781BF00BF30B5C03983B0044640
:10301C0004296ED8DFE801F0135D344903004378CE
:10302C000192002B6CD14FF2D001FFF7DBFF019A1C
:10303C003548627003B0BDE83040FEF7E3BA4FF498
:10304C007A71436901FB02F198881A8091FBF0F1C7
:10305C00013989B219812D4801F0C2FC63691989C3
:10306C005888FDF7D7F94FF2D0012046FFF7BAFF89
:10307C0004226168264803B0BDE83040FEF7D8BE94
:10308C004FF47A71436921481D889A8001FB05F140
:10309C0091FBF2F1013989B2198101F0A1FC63694C
:1030AC002069998800F062F8D8E74FF2D001FFF759
:1030BC0099FF022000F0C0FE03460222656901461A
:1030CC00A888000A1870AD8820465D70FFF71CFFB9
:1030DC00CEE74FF2D001FFF785FF022000F0ACFEE7
:1030EC0003466569014628880222000A18702D885B
:1030FC00EAE74FF2FF0103B0BDE83040FFF772BFC3
:10310C004FF2FE01F7E700BFFC000020A0540008BE
:10311C000402002030B50546446883B0A378627879
:10312C002178E4780D48009401F05AFC6B681A7809
:10313C00D978914207D028464FF2FF0103B0BDE881
:10314C003040FFF74FBF28465A789B7843EA02225B
:10315C0003B0BDE83040FFF757BF00BF88540008EC
:10316C0000220180428042608260704703888B425B
:10317C0018BF0180704700BF0088704742880088E4
:10318C00101AB0FA80F04009704700BF426872B163
:10319C00002310B41488581C240ACC54148880B210
:1031AC000C54526802339BB2002AF3D110BC704706
:1031BC0038B5446805462CB12046FFF7F9FF204688
:1031CC0000F046FE284638BD38B5044608200D46AA
:1031DC0000F021FE002263880580426043B1218803
:1031EC00A56899426860A06007D00133638038BD40
:1031FC000123A0606060638038BD65686B682846F9
:10320C0063606A60FFF7D4FF2846BDE8384000F0E1
:10321C001FBE00BF38B5456804462DB12846FFF7E0
:10322C00C7FF284600F014FE0023A3606360638090
:10323C0038BD00BF012A05D0022A01D10B680360FA
:10324C000020704701600020704700BF012A05D0A4
:10325C00022A01D10B680360002070470160002036
:10326C00704700BFF8B50668012204211B48FFF720
:10327C000DFBF368002B2FD03369301D9847336852
:10328C009D68AB68291D5BB10C461A7C4AB11C4683
:10329C009B68002BF9D1A14202D0237C012B04DDC9
:1032AC00F8BDDB68002BF0D1F5E767695FB1FB680F
:1032BC001BB1391D084603229847384600F0C8FD5B
:1032CC0033689D68291D204600F07DFE00F0C0FD8E
:1032DC006B69013B6B61F8BD00F05AFF000C0140BB
:1032EC00022AF8B51446064617D0032A07D0012A3D
:1032FC0001D00020F8BD0B6803600020F8BD046805
:10330C00002CF6D023691BB104F10801084698473C
:10331C00204600F09DFD0020F8BD18200F6800F03D
:10332C007AFD97E80600002303613B69054680E8B7
:10333C00060043B1224607F10801083098477A6924
:10334C003B696A612B6135600020F8BD022AF8B533
:10335C001446054616D0032A07D0012A01D00020B6
:10336C00F8BD0B6803600020F8BD0468002CF6D093
:10337C00E36813B1211D08469847204600F068FD0C
:10338C000020F8BD14200F6800F045FD00233A68BA
:10339C00C360FB68064602603BB12246391D04300F
:1033AC0098473A69FB683261F3602E600020F8BDE3
:1033BC0070B504688AB02D4800220421FFF766FA24
:1033CC0023689868836863B1043001461A7C52B153
:1033DC0019469B68002BF9D1884202D00A7C012A3D
:1033EC0005DD0AB070BDDB68002BEFD1F4E74D6949
:1033FC00002DF6D0626826690592089346B1022228
:10340C0004F1080106A8B047236962690893099280
:10341C0000261420039600F0FEFC059A089B044637
:10342C00C66002603BB1022206A904309847099A93
:10343C00089B2261E3600E4B0E4A01A928460393B8
:10344C0001940492FFF782FC039B1BB101A9032298
:10345C0008469847089B1BB106A9084603229847C3
:10346C0028460121FFF7A0FC0AB070BD000C0140FA
:10347C00593300087132000838B503680546CBB1E2
:10348C001A68934213D05A68906810B100F0E0FCAF
:10349C002B689A685C68013A9A60204600F070FECE
:1034AC00204600F0D5FC2B681A689A42EBD11846DE
:1034BC0000F0CEFC284638BD70B585686B6983B1C9
:1034CC00EC682B1D9C420CD00646606910B1FFF7CE
:1034DC0079FCB568204600F0FEFC2B1D9842044692
:1034EC00F3D170BD80787047436870B51D68AB42EE
:1034FC001CD00678D6B904462A7A2846E2709A6817
:10350C00013A9A6000F03CFE284600F0A1FC3246DD
:10351C004FF400610648FFF7B9F92146BDE8704049
:10352C000122044801F8032BFFF702BA70BD00BF5B
:10353C00000C01408802002010B5012204464FF413
:10354C0000610548FFF7A2F9002320462370BDE86F
:10355C001040FFF7C9BF00BF000C014070B5054615
:10356C000E4600224FF480610948FFF78FF90C20BA
:10357C006C6800F050FC2146067200F0FAFDA3685E
:10358C0028460133A360BDE87040FFF7ADBF00BF14
:10359C00000C014070B505460E4601224FF48061C7
:1035AC000948FFF773F90C206C6800F034FC2146D5
:1035BC00067200F0DEFDA36828460133A360BDE867
:1035CC007040FFF791BF00BF000C014000293BD0B9
:1035DC00F8B5022015460C4600F01DFC00270646E7
:1035EC00EB125B00337077700C2000F014FC21465A
:1035FC00866000F0BEFDA36802200133A36000F0DA
:10360C000AFC0646C5F34513337077700C2000F0A6
:10361C0002FC2146866000F0ACFDA3680220013359
:10362C00A36000F0F8FB06466D0005F03F050C208A
:10363C007770357000F0EFFB2146866000F099FD45
:10364C00A3680133A360F8BD704700BF437803B192
:10365C007047C36870B51C68A3425DD09A68A668B1
:10366C00013A05469A60204600F08AFD204600F09B
:10367C00EFFB002E57D031680C688C4254D00123DC
:10368C006B7004E0012A48D02468A1420DD0A368D5
:10369C00002BF9D05A78002AF4D119782846FFF774
:1036AC005DFF31682468A142F1D1A86883680430B9
:1036BC004BB301461A7C012ACABF1946DB689B68CA
:1036CC00002BF7D188421ED00B7C022B1BDC4869E7
:1036DC00B188FFF739FB3046FFF7CEFE304600F0DD
:1036EC00B7FBA868836804306BB101461A7C012AC9
:1036FC00CABF1946DB689B68002BF7D1884202D001
:10370C000B7C022B02DD094800F03FFD4869BDE847
:10371C0070400121FFF748BB70BD19782846FFF7B0
:10372C0039FF3168B0E770BD70BD00BFB4540008FC
:10373C00036810B5044698688368EBB10430014601
:10374C001A7C012ACABF1946DB689B68002BF7D18B
:10375C00884211D00B7C022B0EDC4869FFF72EFB44
:10376C0023689A780AB901229A700022BDE81040A9
:10377C0018465A70FFF76ABF014800F006FD00BFFB
:10378C00B45400082DE9F04F064683B00C20019389
:10379C00884617469DF830B0BDF834A0BDF8389077
:1037AC0000F039FB002504460220A560246064600B
:1037BC0000F031FB222102460C2055701170009252
:1037CC0000F029FB009A2146826000F0D2FCA2682E
:1037DC0002200132A26000F01EFB02460C2082F88F
:1037EC0000805570009200F016FB009A2146826012
:1037FC0000F0BFFCA26802200132A26000F00BFBBB
:10380C0002460C2017705570009200F004FB009AD1
:10381C002146826000F0ADFCA26802200132A26059
:10382C0000F0F9FA0246019B5570013B984482F86E
:10383C0000800C20009200F0EEFA009A2146826083
:10384C0000F097FCA36802200133A36000F0E3FAB8
:10385C0080460BF1FF3B5F4488F8007088F80150FC
:10386C000C2000F0D8FA2146C0F8088000F081FC4A
:10387C00A3685246013321463046A360FFF7A6FEEB
:10388C004A4621463046FFF7A1FE0820F56800F0B5
:10389C00C2FA032307460C20BB803C6000F0BBFA45
:1038AC002946876000F065FC3046AB680133AB609D
:1038BC0003B0BDE8F04FFFF7C9BE00BF30B585B00F
:1038CC00BDF824409DF82050029400950194FFF718
:1038DC0059FF05B030BD00BF10B5044684B0AE2111
:1038EC000068FFF73BFE20682521FFF737FE2068B4
:1038FC008121FFF733FE20688021FFF72FFE20681F
:10390C008221FFF72BFE20688021FFF727FE20681D
:10391C008321FFF723FE20688021FFF71FFE20681C
:10392C008721FFF71BFE20680C21FFF717FE20688C
:10393C008A21FFF713FE20686421FFF70FFE206831
:10394C008B21FFF70BFE20687821FFF707FE20681C
:10395C008C21FFF703FE20686421FFF7FFFD206830
:10396C00A021FFF7FBFD20687221FFF7F7FD20680F
:10397C00A121FFF7F3FD20680021FFF7EFFD206880
:10398C00A221FFF7EBFD20680021FFF7E7FD20687F
:10399C00A421FFF7E3FD2068A821FFF7DFFD2068D5
:1039AC003F21FFF7DBFD2068AD21FFF7D7FD206835
:1039BC008E21FFF7D3FD2068B021FFF7CFFD2068E3
:1039CC000121FFF7CBFD2068B121FFF7C7FD20686F
:1039DC003121FFF7C3FD2068B321FFF7BFFD20683D
:1039EC00F021FFF7BBFD2068BB21FFF7B7FD206876
:1039FC003A21FFF7B3FD2068BE21FFF7AFFD206829
:103A0C003E21FFF7ABFD20682E21FFF7A7FD2068B4
:103A1C00AF21FFF7A3FD20682621FFF79FFD20684B
:103A2C000121FFF79BFD00224023206811460093E3
:103A3C00029201926023FFF7A5FE04B010BD00BFF7
:103A4C008B682DE9F041074690460C1DCBB118460A
:103A5C00167800E01846057CB542CBBF8368C36876
:103A6C0001240024002BF5D154B904460023B5429F
:103A7C00B4BF87E8180087E809003846BDE8F08134
:103A8C000446CB689C4206D0204600F038FA98F8E1
:103A9C000060057CEAE7002387E81800EDE700BF2B
:103AAC002DE9F04F174606460D4683B0182000F05E
:103ABC00B2F900233A6806F1040A17785545044612
:103ACC0000F1100B0774436131D095F81080474515
:103ADC001EDAD6F80C904D4527D0284600F00FFA88
:103AEC00037C02469F4228DDC368002B3CD02A464B
:103AFC00A946B9F1000F37D001205346214600F0FA
:103B0C0000FA204673690133736103B0BDE8F08F8E
:103B1C0024DD3269954227D0284600F0DCF9037C7D
:103B2C0081469F4209DAEB683BB34A46E1E7736989
:103B3C001BB13269137CBB4216DB5A4631466846D0
:103B4C00FFF77EFF019ADDF80090002AD1D12046C4
:103B5C0000F07EF9484603B0BDE8F08FA946204638
:103B6C0000F076F94846F6E79245C5D092F81080F9
:103B7C004745ACBF00200120BFE72A46F8E700BF4D
:103B8C0070B500248B6896B0054605900894002B00
:103B9C0000F08B800E46022206A89847F168B368A5
:103BAC00059A0A950E94099108930B92002B00F03C
:103BBC00838006A902220CA898470998089B0A99A9
:103BCC000B9A14940F900E93109111923BB1022208
:103BDC000CA912A898470F9A0E9B159214930026C5
:103BEC001820039600F017F91099119A149B0446AB
:103BFC00066180E806003BB1022212A90830984702
:103C0C00159A149B626123612D4A2E4B1820019446
:103C1C000492039300F0FFF8012301AA3221044619
:103C2C00FFF77AF8039B1BB101A9032208469847BA
:103C3C00149B1BB112A90846032298470123A868BC
:103C4C008DF804308368051D294653B11A7C32B3B4
:103C5C0019469B68002BF9D18D4202D00B7C012BAD
:103C6C0021DD16AA01AB42F8183DFFF719FF44619C
:103C7C00012204211448FEF709FE20460121FFF71A
:103C8C0093F80E9B1BB10CA9084603229847089B7E
:103C9C001BB106A908460322984716B070BDDB6815
:103CAC00002BD3D1D8E70846E1E70A900B900E938E
:103CBC0010901190149392E71095119214938EE733
:103CCC00BD330008ED320008000C014000B5094B73
:103CDC0085B0094A6946029300900392FFF750FFA2
:103CEC00029B1BB1032269466846984705B05DF8F4
:103CFC0004FB00BF59320008E538000870B50446D3
:103D0C00002586B025706570A570E5700C2000F05C
:103D1C0082F8034618209D6063601B605B6000F0B6
:103D2C007AF803461A1DDA601A615D609D605D6168
:103D3C00A3600C2000F06FF8034640F2E7319D6061
:103D4C001B605B60E0604820FCF7E2FB1C48FDF761
:103D5C0059FC1C4A1C4B182005920493029400F049
:103D6C005AF80123052102AA0546FEF7D5FF0223C6
:103D7C00A0688DF803308368061D314663B11A7C48
:103D8C00012ACABF1946DB689B68002BF7D18E420B
:103D9C0002D00B7C022B10DD06AA0DF1030342F8B6
:103DAC00143DFFF77DFE049B45611BB102A9032264
:103DBC0008469847204606B070BD0846F3E700BF9A
:103DCC003C0100203D37000841320008002103E08F
:103DDC000B4B5B58435004310A480B4B42189A4228
:103DEC00F6D30A4A02E0002342F8043B084B9A42FD
:103DFC00F9D3FCF74FFD00F09BFCFEF793FE7047E8
:103E0C006C550008000000206C0000206C000020A5
:103E1C00A4030020FEE710B5002814BF04460124BB
:103E2C00204600F00DFD30B900F00AF808B900F09A
:103E3C00FBFA8047F4E710BDFFF7EDBF00F008B8C0
:103E4C00024B1868BFF35B8F704700BFF002002075
:103E5C0000F0FEBCC3689A68C26002B15060426850
:103E6C005A600A68904203D10B60986043607047B7
:103E7C004268916888420CBF9360D360F5E7836811
:103E8C00DA68826002B1506042685A600A689042F7
:103E9C0003D10B60D860436070474268D168884298
:103EAC000CBFD3609360F5E7037833B943685B6864
:103EBC00984202D1C36818467047836823B1DA6808
:103ECC00002AF8D01346FAE743689A688242F2D186
:103EDC0018465B68F9E7C3681BB19A686AB1134668
:103EEC00FBE703464268D168994202D113465268F7
:103EFC00F9E7D9688A4218BF134618467047FFF78E
:103F0C00D3BF2DE9F0471F4603F1040900230C46EB
:103F1C004A608B60CB600B7018B39742916002D1F2
:103F2C007960FC6003E0BB689A4208BFB9604FF04F
:103F3C0001084FF0000A7B689C4240D065682A78E3
:103F4C00002A3BD16E68B3689D4221D1F3686BB1F6
:103F5C001A785AB985F80080344683F8008032709C
:103F6C00E9E7D160FB689A42E1D1DAE7EB689C4261
:103F7C0004D149462846FFF76DFF2C466368494635
:103F8C0083F80080304686F800A0FFF778FFD2E770
:103F9C0013B11A78002ADDD0AB689C4204D1494693
:103FAC002846FFF76CFF2C466368494683F800806F
:103FBC00304686F800A0FFF74DFFBCE71C460123F6
:103FCC002370BDE8F0872DE9F0470F468168054660
:103FDC00C268C1B916466C6806B174607B689D42B4
:103FEC006AD17E60BB689D4204D1EB68002B6AD11C
:103FFC006B68BB60FB689D4225D1AB68002B68D118
:10400C006B68FB601FE01446002A53D01346986877
:10401C00002846D1AB42DE68DDD093424B609960FC
:10402C0007D05C6806B1746059688E60DA60EA6823
:10403C0053607A68954236D17B606A6829785A60F9
:10404C001A7819702A702B78002B62D04FF0000967
:10405C004FF0010A07F104087B689E4256D016B156
:10406C003378012B53D1A068864255D1E068037890
:10407C003BB980F800A0414620462370FFF7EAFECA
:10408C00E0688268C36812B11178012927D113B195
:10409C001978012923D16368264680F800901C46C4
:1040AC00DAE70346B3E76A6891688D420CBF936008
:1040BC00D360C2E70E468EE76B689A6895420CBFD8
:1040CC009E60DE608EE733469A68002A91D01346D4
:1040DC00FAE73346DA68002A93D01346FAE713B1AD
:1040EC001B78012B07D10123137000234146037069
:1040FC00FFF7C5FEE068012223780370C3682270C5
:10410C0003B11A7041462046FFF7A4FE0EB10123FD
:10411C0033702846BDE8F08703783BB980F800A0DF
:10412C00414620462370FFF7AAFEA068C268836848
:10413C0012B11178012904D1002BACD019780129C6
:10414C00A9D013B11B78012B07D1012313700023C5
:10415C0041460370FFF77EFEA068012223780370AE
:10416C008368227003B11A7041462046FFF787FE20
:10417C00CCE74B68016043604B681860486070473F
:10418C000368426813605A60704708B500F04CF938
:10419C0008B500F049F90000244B1A68D0075CBF41
:1041AC0001221A60224B1A68D1075CBF01221A60E7
:1041BC00204B1A68D2075CBF01221A601E4B1A688A
:1041CC00D0075CBF01221A601C4B1A68D1075CBF78
:1041DC0001221A601A4B1A68D2075CBF01221A60BE
:1041EC00184B1A68D0075CBF01221A60164B1A686C
:1041FC00D1075CBF01221A60144B1A68D2075CBF4E
:10420C0001221A60124B1A68D0075CBF01221A6097
:10421C00104B1A68D1075CBF01221A600E4B1A684A
:10422C00D2075CBF01221A60704700BF2003002038
:10423C001C0300201803002014030020100300208E
:10424C000C030020080300200403002000030020BE
:10425C00FC020020F8020020F4020020244B1A6813
:10426C00D0075CBF01221A60224B1A68D1075CBFD1
:10427C0001221A60204B1A68D2075CBF01221A6017
:10428C001E4B1A68D0075CBF01221A601C4B1A68BF
:10429C00D1075CBF01221A601A4B1A68D2075CBFA7
:1042AC0001221A60184B1A68D0075CBF01221A60F1
:1042BC00164B1A68D1075CBF01221A60144B1A689E
:1042CC00D2075CBF01221A60124B1A68D0075CBF80
:1042DC0001221A60104B1A68D1075CBF01221A60C8
:1042EC000E4B1A68D2075CBF01221A60704700BFE0
:1042FC00500300204C0300204803002044030020FE
:10430C00400300203C03002038030020340300202D
:10431C00300300202C03002028030020240300205D
:10432C00184B1A68D1075CBF01221A60164B1A6829
:10433C00D2075CBF01221A60144B1A68D0075CBF0D
:10434C0001221A60124B1A68D1075CBF01221A6055
:10435C00104B1A68D2075CBF01221A600E4B1A6808
:10436C00D0075CBF01221A600C4B1A68D1075CBFE6
:10437C0001221A600A4B1A68D2075CBF01221A602C
:10438C00704700BF700300206C03002068030020FE
:10439C0064030020600300205C030020580300200D
:1043AC0054030020184B1A68D1075CBF01221A6015
:1043BC00164B1A68D2075CBF01221A60144B1A689C
:1043CC00D0075CBF01221A60124B1A68D1075CBF80
:1043DC0001221A60104B1A68D2075CBF01221A60C6
:1043EC000E4B1A68D0075CBF01221A600C4B1A687E
:1043FC00D1075CBF01221A600A4B1A68D2075CBF56
:10440C0001221A60704700BF900300208C0300202B
:10441C008803002084030020800300207C030020FC
:10442C00780300207403002008B5062000F028FB58
:10443C00012000F0CBFF00008A892DE9F0410546F0
:10444C0010070C465AD44B68002B05DC0B6C002B68
:10445C0002DC0020BDE8F081E66A002EF9D00023D2
:10446C0012F480522F682B6033D0606DA3895A07E9
:10447C0005D56368C01A636B0BB1236CC01A00239B
:10448C000246E66A216A2846B047431CA38906D136
:10449C0029681D294BD82B4ACA40D60747D500227C
:1044AC0062602269D904226004D5421C01D12B68B8
:1044BC0003B96065616B2F600029CAD004F1440315
:1044CC00994202D0284600F0E1F900206063BDE873
:1044DC00F081216A01232846B047411CC6D12B68C4
:1044EC00002BC3D01D2B01D0162B01D12F60B0E7B0
:1044FC00A38943F04003A381BDE8F0810F69002F2D
:10450C00A7D0930718BF00230E6808BF4B69A6EB12
:10451C0007080F608B60B8F1000F9ADD43463A46EE
:10452C00216A2846A66AB047002807DCA38943F015
:10453C004003A3814FF0FF30BDE8F0810744A8EBA6
:10454C000008E8E70100402038B50B6905460C4629
:10455C00DBB118B183690BB900F060F80C4B9C42CD
:10456C0009D16C68B4F90C307BB121462846BDE802
:10457C003840FFF761BF074B9C4201D1AC68F1E7B3
:10458C00054B9C4208BFEC68ECE7002038BD00BF2F
:10459C00DC540008FC540008BC540008014900F02D
:1045AC00A9B800BF55450008002310B504460360A8
:1045BC004360836081814366C2810361436183618F
:1045CC00194608225C3000F059F9054B24626362ED
:1045DC00044BA362044BE362044B236310BD00BF86
:1045EC00C54A0008E74A00081F4B0008434B000867
:1045FC0070B568254A1E55430E4605F1740100F04E
:10460C0091F9044640B1002180E842000C30A060D2
:10461C0005F1680200F032F9204670BD836910B5CF
:10462C00044633BB8364C3640365124B124A1B6894
:10463C008262984204BF0123836100F01FF860601E
:10464C00204600F01BF8A060204600F017F800226E
:10465C00E06004216068FFF7A7FF01220921A06830
:10466C00FFF7A2FF02221221E068FFF79DFF012352
:10467C00A36110BD1C550008A9450008F8B51C4BDA
:10468C0007461E68B36913B93046FFF7C7FF4836B3
:10469C00B4687368013B03D5336833B13668F7E708
:1046AC00B4F90C506DB16834F4E704213846FFF7C7
:1046BC009FFF30600028F1D10C2304463B6020465C
:1046CC00F8BD4FF6FF73E38101236566A381256076
:1046DC00A560656025616561A5610822294604F124
:1046EC005C0000F0CBF86563A563A564E564E6E7C0
:1046FC001C5500082DE9F84380468946002600F138
:10470C00480414B93046BDE8F883A5686768013FD2
:10471C0001D52468F5E7AB89012B07D9B5F90E3023
:10472C00013303D029464046C84706436835EEE7B7
:10473C0070B500250C4E0D4CA41BA410A54209D13C
:10474C0000F046FE00250A4E0A4CA41BA410A542FC
:10475C0005D170BD56F8253098470135EEE756F86F
:10476C00253098470135F2E7545500085455000898
:10477C00545500086855000870B50E46B1F90E1076
:10478C0090B0002914461D4607DA00232B60B3892C
:10479C001A0610D44FF480630EE001AA00F0F2F96F
:1047AC000028F2DB029A02F47042A2F500535A423E
:1047BC005A412A60EEE740230020236010B070BD00
:1047CC008B8973B59D0706460C4607D504F1470344
:1047DC00236023610123636102B070BD01AB6A46A3
:1047EC00FFF7CAFF00990546304600F09BF848B920
:1047FC00B4F90C309A05EFD423F0030343F0020311
:10480C00A381E3E70D4BB362A389206043F08003DF
:10481C00A381009B20616361019B5BB1B4F90E1015
:10482C00304600F0C1F928B1A38923F0030343F00B
:10483C000103A381A3891D43A581CDE7A9450008E8
:10484C00024B0146186800F06DB800BF080000204C
:10485C00024B0146186800F019B800BF0800002090
:10486C0010B5C9B202449042034601D1002010BDDC
:10487C001C7801308C42F6D1184610BD0346024418
:10488C00934200D1704703F8011BF9E738B5054690
:10489C00002943D051F8043C0C1F002BB8BFE4187E
:1048AC0000F0A4F91E4A1368104633B96360146013
:1048BC002846BDE8384000F09AB9A3420BD92168CC
:1048CC006218934201BF1A685B68521822606360D9
:1048DC000460EDE713465A680AB1A242FAD9196886
:1048EC005818A0420BD12068014458188242196014
:1048FC00DED110685268014419605A60D8E702D9B9
:10490C000C232B60D4E7206821188A4201BF116860
:10491C0052680918216062605C60C9E738BD00BF4D
:10492C009403002070B5CD1C25F0030508350C2D23
:10493C0038BF0C25002D064601DBA94203D90C23F8
:10494C003360002070BD00F051F9234A14682146F1
:10495C0091B9224C23681BB9304600F059F82060FD
:10496C002946304600F054F8431C26D10C2330461F
:10497C00336000F03CF9E4E70B685B1B1AD40B2B9B
:10498C000FD90B60CC18CD50304600F030F904F143
:10499C000B00231D20F00700C31A1BD05A42E25013
:1049AC0070BD8C420BBF63684B681360636018BFAB
:1049BC000C46E9E70C464968CAE7C41C24F003041A
:1049CC00A04205D0211A304600F022F80130CDD09B
:1049DC002560D9E770BD00BF940300209803002028
:1049EC000FB40A4B13B51C6824B1A36913B9204644
:1049FC00FFF714FE05AB049AA1682046019300F062
:104A0C001FF902B0BDE8104004B070470800002048
:104A1C0038B50023054C05460846236000F0C8FC59
:104A2C00431C02D1236803B12B6038BDA0030020C6
:104A3C001F2938B504460D4604D9162303604FF0E0
:104A4C00FF3038BD426C12B152F821304BB92046C0
:104A5C0000F030F82A4601462046BDE8384000F008
:104A6C0017B8012B0AD0591C03D11623036001205F
:104A7C0038BD0024284642F825409847002038BD10
:104A8C00024B01461868FFF7D3BF00BF0800002097
:104A9C0038B50023064C054608461146236000F045
:104AAC006FFC431C02D1236803B12B6038BD00BFDF
:104ABC00A003002000F054BC10B50C46B1F90E1048
:104ACC0000F06CFB0028ABBF636DA3891B1823F4AB
:104ADC008053ACBF6365A38110BD2DE9F0411F4627
:104AEC008B890546DB050C46164605D502230022AC
:104AFC00B1F90E1000F068F8A389324623F4805304
:104B0C00A381B4F90E103B462846BDE8F04100F0F5
:104B1C0017B810B50C46B1F90E1000F055F8431C3F
:104B2C00A38915BF606523F4805343F48053A3819C
:104B3C0018BFA38110BDB1F90E1000F013B800001E
:104B4C0038B50546084611460022054C22601A4627
:104B5C00FBF70EFF431C02D1236803B12B6038BD59
:104B6C00A003002038B50023054C054608462360F9
:104B7C0000F0E6FB431C02D1236803B12B6038BD67
:104B8C00A003002038B50023064C05460846114604
:104B9C00236000F0DDFB431C02D1236803B12B60C2
:104BAC0038BD00BFA003002038B50023054C0546D6
:104BBC000846236000F0DCFB431C02D1236803B1E0
:104BCC002B6038BDA003002038B5054608461146B9
:104BDC000022054C22601A4600F0DAFB431C02D17D
:104BEC00236803B12B6038BDA003002070477047C9
:104BFC00936810B4013B002B936008DA9469A342CC
:104C0C0002DBCBB20A2B02D110BC00F0D9BA13686C
:104C1C00581C10601970C8B210BC7047F8B5064625
:104C2C000F461446D518AC4201D1002007E03A4695
:104C3C0014F8011B3046FFF7DBFF431CF3D1F8BD22
:104C4C002DE9F04F9DB00C4617460393064618B15C
:104C5C0083690BB9FFF7E2FC7C4B9C4257D174681B
:104C6C00A38918075DD52369002B5AD0002309931B
:104C7C0020238DF8293030234FF0010B8DF82A308A
:104C8C00B846454615F8013B002B55D1B8EB070A41
:104C9C000BD053463A4621463046FFF7BFFF013052
:104CAC0000F0C480099B5344099398F80030002B02
:104CBC0000F0BC8000234FF0FF3204930793059261
:104CCC0006938DF853301A93052229786048FFF724
:104CDC00C7FD05F10108049B002831D1D90644BF5A
:104CEC0020228DF853201A0744BF2B228DF8532015
:104CFC002A782A2A2CD000210A20079AA84698F84C
:104D0C0000300135303B092B6DD971B326E0514B86
:104D1C009C4201D1B468A3E74F4B9C4208BFF46896
:104D2C009EE72146304600F09DFA00289ED04FF0B9
:104D3C00FF301DB0BDE8F08F252BA7D0A846A0E70B
:104D4C00434A4546801A0BFA00F018430490BBE71F
:104D5C00039A111D12680391002A01DB079204E0EB
:104D6C00524243F002030792049398F800302E2B22
:104D7C0010D198F8013008F101012A2B37D1039B8F
:104D8C0008F102081A1D1B680392002BB8BF4FF0E4
:104D9C00FF330593314D032298F800102846FFF796
:104DAC005FFD40B14023401B03FA00F0049B08F167
:104DBC0001080343049398F800100622284808F1D0
:104DCC0001078DF82810FFF74BFD002834D0254B38
:104DDC0003BB039B073323F0070308330393099B9F
:104DEC004B4409934CE700FB0232012186E7002378
:104DFC000A2518460593884698F800200131303A68
:104E0C00092A03D9002BC5D00590C3E705FB002068
:104E1C000123F0E703AB00932246134B04A9304661
:104E2C00AFF30080B0F1FF3F8146D8D1A3895B0678
:104E3C003FF57DAF09987CE703AB009322460A4B04
:104E4C0004A9304600F08AF8ECE700BFDC540008F7
:104E5C0020550008FC540008BC54000826550008D6
:104E6C002A55000800000000294C00082DE9F047E5
:104E7C0091461F468A680B6906469342B8BF134693
:104E8C00C9F8003091F843200C46DDF8208012B1AF
:104E9C000133C9F800302368990642BFD9F80030B5
:104EAC000233C9F80030256815F0060507D104F166
:104EBC00190AE368D9F800209B1A9D422ADB94F862
:104ECC0043302268003318BF012392062FD404F11B
:104EDC00430239463046C047013022D02368E5688A
:104EEC0003F00603042B18BF0025D9F800204FF05F
:104EFC00000908BFAD1AA368226908BF25EAE57549
:104F0C009342C4BF9B1AED181A344D451BD1002097
:104F1C00BDE8F0870123524639463046C047013080
:104F2C0003D14FF0FF30BDE8F0870135C1E73020E9
:104F3C00E11881F843005A1C94F8451022440233BE
:104F4C0082F84310C3E70123224639463046C04756
:104F5C000130E6D009F10109D7E700002DE9F04353
:104F6C0017460A7E85B06E2A984606460C460C9B60
:104F7C0001F1430E00F0BC801AD8632A2ED00AD857
:104F8C00002A00F0C880582A00F08A8004F14205FB
:104F9C0084F842202AE0642A01D0692AF6D12168DB
:104FAC001A6811F0800F23D0111D1960136827E0C7
:104FBC00732A00F0B48008D86F2A2AD0702AE5D161
:104FCC000A6842F020020A6003E0752A21D0782A90
:104FDC00DCD178226F4984F8452064E01A6801F12D
:104FEC004205111D1960136884F842300123A3E0B7
:104FFC0011F0400F02F104011960D7D0B2F9003062
:10500C00002B03DA2D225B4284F8432062490A22EA
:10501C0017E02068196810F0800F03D0081D186085
:10502C000B6806E010F0400F01F104001860F7D097
:10503C000B886F2A14BF0A2208225749002084F8D3
:10504C0043006568002DA560C0F29C80206820F0AC
:10505C0004002060002B3FD1002D40F09580754658
:10506C00082A0BD12368DA0708D5236962689A42AB
:10507C00DEBF302305F8013C05F1FF35AEEB05032F
:10508C002361CDF800803B4603AA21463046FFF74A
:10509C00EDFE013055D14FF0FF3005B0BDE8F08387
:1050AC0081F845203C492268186812F0800F00F105
:1050BC0004051D6001D0036802E05506FBD503888A
:1050CC00D00744BF42F0200222601BB9226822F0B4
:1050DC00200222601022B1E77546B3FBF2F002FB0E
:1050EC001033CB5C05F8013D03460028F5D1B7E73A
:1050FC0008681A6810F0800F496904D0101D1860F8
:10510C001368196007E010F0400F02F104001860FA
:10511C001368F6D01980002375462361B1E71A682D
:10512C00111D19601568002162682846FFF798FB6D
:10513C0008B1401B606063682361002384F843302E
:10514C009FE723692A4639463046C0470130A2D032
:10515C0023689B0707D5002504F11909E368039A16
:10516C009B1A9D4205DBE068039B9842B8BF18462A
:10517C0093E701234A4639463046C04701308AD06E
:10518C000135EBE7002BA7D10B7804F1420584F82D
:10519C00423065E7425500083155000838B50546E0
:1051AC00084611460022054C22601A4600F0F8F819
:1051BC00431C02D1236803B12B6038BDA00300202F
:1051CC00F8B50E461446054618B183690BB9FFF7BE
:1051DC0025FA214B9C422AD16C68A369A360A38950
:1051EC001A072ED5236963B323692068F6B2C01A57
:1051FC0063693746984204DB21462846FFF7A4F939
:10520C0028BBA3680130013BA36023685A1C2260B1
:10521C001E706369984204D0A389DB0719D50A2E46
:10522C0017D121462846FFF78FF990B10FE00B4BB1
:10523C009C4201D1AC68D0E7094B9C4208BFEC689A
:10524C00CBE72146284600F00DF80028CCD04FF0D3
:10525C00FF373846F8BD00BFDC540008FC5400088A
:10526C00BC540008324B70B51D6806460C4625B17F
:10527C00AB6913B92846FFF7D1F92E4B9C420FD1DD
:10528C006C68B4F90C309AB215072CD4D00611D432
:10529C000922326043F04003A3814FF0FF3070BD10
:1052AC00254B9C4201D1AC68EBE7244B9C4208BFD8
:1052BC00EC68E6E7510712D5616B41B104F1440388
:1052CC00994202D03046FFF7E1FA00236363A389C9
:1052DC0023F02403A3810023636023692360A38943
:1052EC0043F00803A38123694BB9A38903F420730A
:1052FC00B3F5007F03D021463046FFF761FAA2894F
:10530C0012F001030CD00023A36063695B42A3611C
:10531C00236953B9B4F90C3013F08000BAD170BDC5
:10532C00920758BF6369A360F2E70020F7E700BF5C
:10533C0008000020DC540008FC540008BC54000891
:10534C005822024B4FF0FF301A607047A003002028
:10535C005822024B4FF0FF301A607047A003002018
:10536C005822024B4FF0FF301A607047A003002008
:10537C005822024B00201A60704700BFA003002087
:10538C005822024B4FF0FF301A607047A0030020E8
:10539C005822024B4FF0FF301A607047A0030020D8
:1053AC005822024B4FF0FF301A607047A0030020C8
:1053BC00044A05491368002B08BF0B4618441060BB
:1053CC00184670479C030020A8030020FEE700BF8E
:1053DC00F8B500BFF8BC08BC9E467047F8B500BFD6
:0853EC00F8BC08BC9E467047A6
:1053F40002030405060708090A0B0C0D0E0F101012
:105404007372632F48414C2F6164632E6300000064
:105414007372632F48414C2F74696D2E6300000032
:105424007372632F48414C2F75736172742E63003D
:105434007372632F48414C2F7370692E6300000010
:105444000000000000000000010203040607080930
:1054540000000000010203042A2A2A2A2A2A2A2AEE
:105464002A2A2A2A2A0A2A2A2A2A2A2A2A2A2A2AB8
:105474002A2A2A0A2D2D2D2D2D2D2D2D2D2D2D0AA7
:1054840000000000554152542052583A202558201B
:1054940025582025582025580A000000757064619D
:1054A4007465506572696F643A2025750A000000BE
:1054B4006D61703A3A617400000000000000000061
:1054C40000000000000000000000000000000000D8
:1054D40000000000000000000000000000000000C8
:1054E40000000000000000000000000000000000B8
:1054F40000000000000000000000000000000000A8
:105504000000000000000000000000000000000097
:1055140000000000000000000C000020232D302BB0
:105524002000686C4C0065666745464700303132A0
:1055340033343536373839414243444546003031F7
:105544003233343536373839616263646566000056
:1055540031010008A5410008694200082D430008F4
:04556400B143000847
:045568000D01000829
:10556C0000A24A04010100000C0000200000000011
:10557C00DC540008FC540008BC5400080000000077
:10558C00000000000000000000000000000000000F
:10559C0000000000000000000000000000000000FF
:1055AC0000000000000000000000000000000000EF
:1055BC0000000000000000000000000000000000DF
:0C55CC00000000000000000000000000D3
:0400000508003DD9D9
:00000001FF
